{
  "abi": [
    {
      "inputs": [],
      "stateMutability": "nonpayable",
      "type": "constructor"
    },
    {
      "anonymous": false,
      "inputs": [
        {
          "indexed": true,
          "internalType": "address",
          "name": "owner",
          "type": "address"
        },
        {
          "indexed": true,
          "internalType": "address",
          "name": "approved",
          "type": "address"
        },
        {
          "indexed": true,
          "internalType": "uint256",
          "name": "tokenId",
          "type": "uint256"
        }
      ],
      "name": "Approval",
      "type": "event"
    },
    {
      "anonymous": false,
      "inputs": [
        {
          "indexed": true,
          "internalType": "address",
          "name": "owner",
          "type": "address"
        },
        {
          "indexed": true,
          "internalType": "address",
          "name": "operator",
          "type": "address"
        },
        {
          "indexed": false,
          "internalType": "bool",
          "name": "approved",
          "type": "bool"
        }
      ],
      "name": "ApprovalForAll",
      "type": "event"
    },
    {
      "anonymous": false,
      "inputs": [
        {
          "indexed": true,
          "internalType": "address",
          "name": "from",
          "type": "address"
        },
        {
          "indexed": true,
          "internalType": "address",
          "name": "to",
          "type": "address"
        },
        {
          "indexed": true,
          "internalType": "uint256",
          "name": "tokenId",
          "type": "uint256"
        },
        {
          "indexed": false,
          "internalType": "enum IERC5484.BurnAuth",
          "name": "burnAuth",
          "type": "uint8"
        }
      ],
      "name": "Issued",
      "type": "event"
    },
    {
      "anonymous": false,
      "inputs": [
        {
          "indexed": true,
          "internalType": "address",
          "name": "from",
          "type": "address"
        },
        {
          "indexed": true,
          "internalType": "address",
          "name": "to",
          "type": "address"
        },
        {
          "indexed": true,
          "internalType": "uint256",
          "name": "tokenId",
          "type": "uint256"
        }
      ],
      "name": "Transfer",
      "type": "event"
    },
    {
      "inputs": [
        {
          "internalType": "address",
          "name": "to",
          "type": "address"
        },
        {
          "internalType": "uint256",
          "name": "tokenId",
          "type": "uint256"
        }
      ],
      "name": "approve",
      "outputs": [],
      "stateMutability": "nonpayable",
      "type": "function"
    },
    {
      "inputs": [
        {
          "internalType": "address",
          "name": "owner",
          "type": "address"
        }
      ],
      "name": "balanceOf",
      "outputs": [
        {
          "internalType": "uint256",
          "name": "",
          "type": "uint256"
        }
      ],
      "stateMutability": "view",
      "type": "function"
    },
    {
      "inputs": [
        {
          "internalType": "uint256",
          "name": "tokenId",
          "type": "uint256"
        }
      ],
      "name": "burnAuth",
      "outputs": [
        {
          "internalType": "enum IERC5484.BurnAuth",
          "name": "",
          "type": "uint8"
        }
      ],
      "stateMutability": "view",
      "type": "function"
    },
    {
      "inputs": [
        {
          "internalType": "uint256",
          "name": "tokenId",
          "type": "uint256"
        }
      ],
      "name": "deleteCertificate",
      "outputs": [],
      "stateMutability": "nonpayable",
      "type": "function"
    },
    {
      "inputs": [
        {
          "internalType": "uint256",
          "name": "tokenId",
          "type": "uint256"
        }
      ],
      "name": "getApproved",
      "outputs": [
        {
          "internalType": "address",
          "name": "",
          "type": "address"
        }
      ],
      "stateMutability": "view",
      "type": "function"
    },
    {
      "inputs": [
        {
          "internalType": "address",
          "name": "owner",
          "type": "address"
        },
        {
          "internalType": "address",
          "name": "operator",
          "type": "address"
        }
      ],
      "name": "isApprovedForAll",
      "outputs": [
        {
          "internalType": "bool",
          "name": "",
          "type": "bool"
        }
      ],
      "stateMutability": "view",
      "type": "function"
    },
    {
      "inputs": [
        {
          "internalType": "address",
          "name": "to",
          "type": "address"
        },
        {
          "internalType": "string",
          "name": "tokenURI_",
          "type": "string"
        }
      ],
      "name": "issueCertificate",
      "outputs": [
        {
          "internalType": "uint256",
          "name": "",
          "type": "uint256"
        }
      ],
      "stateMutability": "nonpayable",
      "type": "function"
    },
    {
      "inputs": [],
      "name": "name",
      "outputs": [
        {
          "internalType": "string",
          "name": "",
          "type": "string"
        }
      ],
      "stateMutability": "view",
      "type": "function"
    },
    {
      "inputs": [
        {
          "internalType": "uint256",
          "name": "tokenId",
          "type": "uint256"
        }
      ],
      "name": "ownerOf",
      "outputs": [
        {
          "internalType": "address",
          "name": "",
          "type": "address"
        }
      ],
      "stateMutability": "view",
      "type": "function"
    },
    {
      "inputs": [
        {
          "internalType": "address",
          "name": "from",
          "type": "address"
        },
        {
          "internalType": "address",
          "name": "to",
          "type": "address"
        },
        {
          "internalType": "uint256",
          "name": "tokenId",
          "type": "uint256"
        }
      ],
      "name": "safeTransferFrom",
      "outputs": [],
      "stateMutability": "nonpayable",
      "type": "function"
    },
    {
      "inputs": [
        {
          "internalType": "address",
          "name": "from",
          "type": "address"
        },
        {
          "internalType": "address",
          "name": "to",
          "type": "address"
        },
        {
          "internalType": "uint256",
          "name": "tokenId",
          "type": "uint256"
        },
        {
          "internalType": "bytes",
          "name": "data",
          "type": "bytes"
        }
      ],
      "name": "safeTransferFrom",
      "outputs": [],
      "stateMutability": "nonpayable",
      "type": "function"
    },
    {
      "inputs": [
        {
          "internalType": "address",
          "name": "operator",
          "type": "address"
        },
        {
          "internalType": "bool",
          "name": "approved",
          "type": "bool"
        }
      ],
      "name": "setApprovalForAll",
      "outputs": [],
      "stateMutability": "nonpayable",
      "type": "function"
    },
    {
      "inputs": [
        {
          "internalType": "bytes4",
          "name": "interfaceId",
          "type": "bytes4"
        }
      ],
      "name": "supportsInterface",
      "outputs": [
        {
          "internalType": "bool",
          "name": "",
          "type": "bool"
        }
      ],
      "stateMutability": "view",
      "type": "function"
    },
    {
      "inputs": [],
      "name": "symbol",
      "outputs": [
        {
          "internalType": "string",
          "name": "",
          "type": "string"
        }
      ],
      "stateMutability": "view",
      "type": "function"
    },
    {
      "inputs": [
        {
          "internalType": "uint256",
          "name": "index",
          "type": "uint256"
        }
      ],
      "name": "tokenByIndex",
      "outputs": [
        {
          "internalType": "uint256",
          "name": "",
          "type": "uint256"
        }
      ],
      "stateMutability": "view",
      "type": "function"
    },
    {
      "inputs": [
        {
          "internalType": "address",
          "name": "owner",
          "type": "address"
        },
        {
          "internalType": "uint256",
          "name": "index",
          "type": "uint256"
        }
      ],
      "name": "tokenOfOwnerByIndex",
      "outputs": [
        {
          "internalType": "uint256",
          "name": "",
          "type": "uint256"
        }
      ],
      "stateMutability": "view",
      "type": "function"
    },
    {
      "inputs": [
        {
          "internalType": "uint256",
          "name": "tokenId",
          "type": "uint256"
        }
      ],
      "name": "tokenURI",
      "outputs": [
        {
          "internalType": "string",
          "name": "",
          "type": "string"
        }
      ],
      "stateMutability": "view",
      "type": "function"
    },
    {
      "inputs": [],
      "name": "totalSupply",
      "outputs": [
        {
          "internalType": "uint256",
          "name": "",
          "type": "uint256"
        }
      ],
      "stateMutability": "view",
      "type": "function"
    },
    {
      "inputs": [
        {
          "internalType": "address",
          "name": "from",
          "type": "address"
        },
        {
          "internalType": "address",
          "name": "to",
          "type": "address"
        },
        {
          "internalType": "uint256",
          "name": "tokenId",
          "type": "uint256"
        }
      ],
      "name": "transferFrom",
      "outputs": [],
      "stateMutability": "nonpayable",
      "type": "function"
    }
  ],
  "bytecode": {
    "object": "0x60806040523480156200001157600080fd5b506040518060400160405280600b81526020016a436572746966696361746560a81b8152506040518060400160405280600381526020016210d49560ea1b8152508181816000908162000065919062000124565b50600162000074828262000124565b5050505050620001f0565b634e487b7160e01b600052604160045260246000fd5b600181811c90821680620000aa57607f821691505b602082108103620000cb57634e487b7160e01b600052602260045260246000fd5b50919050565b601f8211156200011f57600081815260208120601f850160051c81016020861015620000fa5750805b601f850160051c820191505b818110156200011b5782815560010162000106565b5050505b505050565b81516001600160401b038111156200014057620001406200007f565b620001588162000151845462000095565b84620000d1565b602080601f831160018114620001905760008415620001775750858301515b600019600386901b1c1916600185901b1785556200011b565b600085815260208120601f198616915b82811015620001c157888601518255948401946001909101908401620001a0565b5085821015620001e05787850151600019600388901b60f8161c191681555b5050505050600190811b01905550565b61297a80620002006000396000f3fe608060405234801561001057600080fd5b50600436106101515760003560e01c80634f6ccce7116100cd578063a22cb46511610081578063bb721aab11610066578063bb721aab146102c5578063c87b56dd146102d8578063e985e9c5146102eb57600080fd5b8063a22cb4651461029f578063b88d4fde146102b257600080fd5b806370a08231116100b257806370a0823114610271578063883eeb6e1461028457806395d89b411461029757600080fd5b80634f6ccce71461024b5780636352211e1461025e57600080fd5b8063095ea7b31161012457806323b872dd1161010957806323b872dd146102125780632f745c591461022557806342842e0e1461023857600080fd5b8063095ea7b3146101eb57806318160ddd1461020057600080fd5b806301ffc9a7146101565780630489b56f1461017e57806306fdde031461019e578063081812fc146101b3575b600080fd5b6101696101643660046122e4565b610334565b60405190151581526020015b60405180910390f35b61019161018c366004612301565b610354565b6040516101759190612349565b6101a661036b565b60405161017591906123f8565b6101c66101c1366004612301565b6103fd565b60405173ffffffffffffffffffffffffffffffffffffffff9091168152602001610175565b6101fe6101f9366004612434565b610431565b005b6008545b604051908152602001610175565b6101fe61022036600461245e565b6105c2565b610204610233366004612434565b610663565b6101fe61024636600461245e565b610732565b610204610259366004612301565b61074d565b6101c661026c366004612301565b61080b565b61020461027f36600461249a565b610897565b6101fe610292366004612301565b610965565b6101a6610971565b6101fe6102ad3660046124b5565b610980565b6101fe6102c03660046125b4565b61098f565b6102046102d3366004612630565b610a37565b6101a66102e6366004612301565b610a71565b6101696102f9366004612692565b73ffffffffffffffffffffffffffffffffffffffff918216600090815260056020908152604080832093909416825291909152205460ff1690565b600061033f82610a7c565b8061034e575061034e82610ad2565b92915050565b6000818152600c602052604081205460ff1661034e565b60606000805461037a906126c5565b80601f01602080910402602001604051908101604052809291908181526020018280546103a6906126c5565b80156103f35780601f106103c8576101008083540402835291602001916103f3565b820191906000526020600020905b8154815290600101906020018083116103d657829003601f168201915b5050505050905090565b600061040882610b28565b5060009081526004602052604090205473ffffffffffffffffffffffffffffffffffffffff1690565b600061043c8261080b565b90508073ffffffffffffffffffffffffffffffffffffffff168373ffffffffffffffffffffffffffffffffffffffff16036104fe576040517f08c379a000000000000000000000000000000000000000000000000000000000815260206004820152602160248201527f4552433732313a20617070726f76616c20746f2063757272656e74206f776e6560448201527f720000000000000000000000000000000000000000000000000000000000000060648201526084015b60405180910390fd5b3373ffffffffffffffffffffffffffffffffffffffff82161480610527575061052781336102f9565b6105b3576040517f08c379a000000000000000000000000000000000000000000000000000000000815260206004820152603d60248201527f4552433732313a20617070726f76652063616c6c6572206973206e6f7420746f60448201527f6b656e206f776e6572206f7220617070726f76656420666f7220616c6c00000060648201526084016104f5565b6105bd8383610bb3565b505050565b6105cc3382610c53565b610658576040517f08c379a000000000000000000000000000000000000000000000000000000000815260206004820152602d60248201527f4552433732313a2063616c6c6572206973206e6f7420746f6b656e206f776e6560448201527f72206f7220617070726f7665640000000000000000000000000000000000000060648201526084016104f5565b6105bd838383610d13565b600061066e83610897565b82106106fc576040517f08c379a000000000000000000000000000000000000000000000000000000000815260206004820152602b60248201527f455243373231456e756d657261626c653a206f776e657220696e646578206f7560448201527f74206f6620626f756e647300000000000000000000000000000000000000000060648201526084016104f5565b5073ffffffffffffffffffffffffffffffffffffffff919091166000908152600660209081526040808320938352929052205490565b6105bd8383836040518060200160405280600081525061098f565b600061075860085490565b82106107e6576040517f08c379a000000000000000000000000000000000000000000000000000000000815260206004820152602c60248201527f455243373231456e756d657261626c653a20676c6f62616c20696e646578206f60448201527f7574206f6620626f756e6473000000000000000000000000000000000000000060648201526084016104f5565b600882815481106107f9576107f9612718565b90600052602060002001549050919050565b60008181526002602052604081205473ffffffffffffffffffffffffffffffffffffffff168061034e576040517f08c379a000000000000000000000000000000000000000000000000000000000815260206004820152601860248201527f4552433732313a20696e76616c696420746f6b656e204944000000000000000060448201526064016104f5565b600073ffffffffffffffffffffffffffffffffffffffff821661093c576040517f08c379a000000000000000000000000000000000000000000000000000000000815260206004820152602960248201527f4552433732313a2061646472657373207a65726f206973206e6f74206120766160448201527f6c6964206f776e6572000000000000000000000000000000000000000000000060648201526084016104f5565b5073ffffffffffffffffffffffffffffffffffffffff1660009081526003602052604090205490565b61096e8161101b565b50565b60606001805461037a906126c5565b61098b338383611024565b5050565b6109993383610c53565b610a25576040517f08c379a000000000000000000000000000000000000000000000000000000000815260206004820152602d60248201527f4552433732313a2063616c6c6572206973206e6f7420746f6b656e206f776e6560448201527f72206f7220617070726f7665640000000000000000000000000000000000000060648201526084016104f5565b610a3184848484611151565b50505050565b600080610a4360105490565b9050610a53601080546001019055565b610a6033858360016111f4565b610a6a8184611490565b9392505050565b606061034e82611559565b60007fffffffff0000000000000000000000000000000000000000000000000000000082167f780e9d6300000000000000000000000000000000000000000000000000000000148061034e575061034e82611661565b60007fffffffff0000000000000000000000000000000000000000000000000000000082167f0489b56f00000000000000000000000000000000000000000000000000000000148061034e575061034e82610a7c565b60008181526002602052604090205473ffffffffffffffffffffffffffffffffffffffff1661096e576040517f08c379a000000000000000000000000000000000000000000000000000000000815260206004820152601860248201527f4552433732313a20696e76616c696420746f6b656e204944000000000000000060448201526064016104f5565b600081815260046020526040902080547fffffffffffffffffffffffff00000000000000000000000000000000000000001673ffffffffffffffffffffffffffffffffffffffff84169081179091558190610c0d8261080b565b73ffffffffffffffffffffffffffffffffffffffff167f8c5be1e5ebec7d5bd14f71427d1e84f3dd0314c0f7b2291e5b200ac8c7c3b92560405160405180910390a45050565b600080610c5f8361080b565b90508073ffffffffffffffffffffffffffffffffffffffff168473ffffffffffffffffffffffffffffffffffffffff161480610ccd575073ffffffffffffffffffffffffffffffffffffffff80821660009081526005602090815260408083209388168352929052205460ff165b80610d0b57508373ffffffffffffffffffffffffffffffffffffffff16610cf3846103fd565b73ffffffffffffffffffffffffffffffffffffffff16145b949350505050565b8273ffffffffffffffffffffffffffffffffffffffff16610d338261080b565b73ffffffffffffffffffffffffffffffffffffffff1614610dd6576040517f08c379a000000000000000000000000000000000000000000000000000000000815260206004820152602560248201527f4552433732313a207472616e736665722066726f6d20696e636f72726563742060448201527f6f776e657200000000000000000000000000000000000000000000000000000060648201526084016104f5565b73ffffffffffffffffffffffffffffffffffffffff8216610e78576040517f08c379a0000000000000000000000000000000000000000000000000000000008152602060048201526024808201527f4552433732313a207472616e7366657220746f20746865207a65726f2061646460448201527f726573730000000000000000000000000000000000000000000000000000000060648201526084016104f5565b610e858383836001611744565b8273ffffffffffffffffffffffffffffffffffffffff16610ea58261080b565b73ffffffffffffffffffffffffffffffffffffffff1614610f48576040517f08c379a000000000000000000000000000000000000000000000000000000000815260206004820152602560248201527f4552433732313a207472616e736665722066726f6d20696e636f72726563742060448201527f6f776e657200000000000000000000000000000000000000000000000000000060648201526084016104f5565b600081815260046020908152604080832080547fffffffffffffffffffffffff000000000000000000000000000000000000000090811690915573ffffffffffffffffffffffffffffffffffffffff8781168086526003855283862080547fffffffffffffffffffffffffffffffffffffffffffffffffffffffffffffffff01905590871680865283862080546001019055868652600290945282852080549092168417909155905184937fddf252ad1be2c89b69c2b068fc378daa952ba7f163c4a11628f55a4df523b3ef91a4505050565b61096e81611750565b8173ffffffffffffffffffffffffffffffffffffffff168373ffffffffffffffffffffffffffffffffffffffff16036110b9576040517f08c379a000000000000000000000000000000000000000000000000000000000815260206004820152601960248201527f4552433732313a20617070726f766520746f2063616c6c65720000000000000060448201526064016104f5565b73ffffffffffffffffffffffffffffffffffffffff83811660008181526005602090815260408083209487168084529482529182902080547fffffffffffffffffffffffffffffffffffffffffffffffffffffffffffffff001686151590811790915591519182527f17307eab39ab6107e8899845ad3d59bd9653f200f220920489ca2b5937696c31910160405180910390a3505050565b61115c848484610d13565b61116884848484611905565b610a31576040517f08c379a000000000000000000000000000000000000000000000000000000000815260206004820152603260248201527f4552433732313a207472616e7366657220746f206e6f6e20455243373231526560448201527f63656976657220696d706c656d656e746572000000000000000000000000000060648201526084016104f5565b600b80547fffffffffffffffffffffffffffffffffffffffffffffffffffffffffffffff0016600117905573ffffffffffffffffffffffffffffffffffffffff83166112c2576040517f08c379a000000000000000000000000000000000000000000000000000000000815260206004820152602560248201527f455243353438343a20746f6b656e2063616e277420626520697373756564207460448201527f6f2030783000000000000000000000000000000000000000000000000000000060648201526084016104f5565b6000828152600e602052604090205460ff161561133b576040517f08c379a000000000000000000000000000000000000000000000000000000000815260206004820181905260248201527f455243353438343a20746f6b656e20697320616c72656164792069737375656460448201526064016104f5565b6113458483611af8565b6000828152600c6020526040902080548291907fffffffffffffffffffffffffffffffffffffffffffffffffffffffffffffff0016600183600381111561138e5761138e61231a565b021790555061139e848484610732565b6000828152600e6020908152604080832080547fffffffffffffffffffffffffffffffffffffffffffffffffffffffffffffff00166001179055600d90915290819020805473ffffffffffffffffffffffffffffffffffffffff8088167fffffffffffffffffffffffff000000000000000000000000000000000000000090921682179092559151849291861691907f135ffb3383e06280e062ac5095bbf8faa98517161e596a2536bd98a9a8b64a889061145a908690612349565b60405180910390a45050600b80547fffffffffffffffffffffffffffffffffffffffffffffffffffffffffffffff001690555050565b60008281526002602052604090205473ffffffffffffffffffffffffffffffffffffffff16611541576040517f08c379a000000000000000000000000000000000000000000000000000000000815260206004820152602e60248201527f45524337323155524953746f726167653a2055524920736574206f66206e6f6e60448201527f6578697374656e7420746f6b656e00000000000000000000000000000000000060648201526084016104f5565b6000828152600a602052604090206105bd8282612795565b606061156482610b28565b6000828152600a60205260408120805461157d906126c5565b80601f01602080910402602001604051908101604052809291908181526020018280546115a9906126c5565b80156115f65780601f106115cb576101008083540402835291602001916115f6565b820191906000526020600020905b8154815290600101906020018083116115d957829003601f168201915b50505050509050600061161460408051602081019091526000815290565b90508051600003611626575092915050565b8151156116585780826040516020016116409291906128af565b60405160208183030381529060405292505050919050565b610d0b84611b12565b60007fffffffff0000000000000000000000000000000000000000000000000000000082167f80ac58cd0000000000000000000000000000000000000000000000000000000014806116f457507fffffffff0000000000000000000000000000000000000000000000000000000082167f5b5e139f00000000000000000000000000000000000000000000000000000000145b8061034e57507f01ffc9a7000000000000000000000000000000000000000000000000000000007fffffffff0000000000000000000000000000000000000000000000000000000083161461034e565b610a3184848484611b85565b6000818152600e602052604090205460ff166117ee576040517f08c379a000000000000000000000000000000000000000000000000000000000815260206004820152602960248201527f455243353438343a20756e61737369676e656420746f6b656e2063616e27742060448201527f6265206275726e6564000000000000000000000000000000000000000000000060648201526084016104f5565b6117f83382611c3b565b611884576040517f08c379a000000000000000000000000000000000000000000000000000000000815260206004820152602f60248201527f455243353438343a2063616c6c657220646f65736e277420686176652062757260448201527f6e20617574686f7269736174696f6e000000000000000000000000000000000060648201526084016104f5565b61188d81611d5a565b6000908152600c6020908152604080832080547fffffffffffffffffffffffffffffffffffffffffffffffffffffffffffffff00908116909155600d835281842080547fffffffffffffffffffffffff0000000000000000000000000000000000000000169055600e90925290912080549091169055565b600073ffffffffffffffffffffffffffffffffffffffff84163b15611aed576040517f150b7a0200000000000000000000000000000000000000000000000000000000815273ffffffffffffffffffffffffffffffffffffffff85169063150b7a029061197c9033908990889088906004016128de565b6020604051808303816000875af19250505080156119d5575060408051601f3d9081017fffffffffffffffffffffffffffffffffffffffffffffffffffffffffffffffe01682019092526119d291810190612927565b60015b611aa2573d808015611a03576040519150601f19603f3d011682016040523d82523d6000602084013e611a08565b606091505b508051600003611a9a576040517f08c379a000000000000000000000000000000000000000000000000000000000815260206004820152603260248201527f4552433732313a207472616e7366657220746f206e6f6e20455243373231526560448201527f63656976657220696d706c656d656e746572000000000000000000000000000060648201526084016104f5565b805181602001fd5b7fffffffff00000000000000000000000000000000000000000000000000000000167f150b7a0200000000000000000000000000000000000000000000000000000000149050610d0b565b506001949350505050565b61098b828260405180602001604052806000815250611e40565b6060611b1d82610b28565b6000611b3460408051602081019091526000815290565b90506000815111611b545760405180602001604052806000815250610a6a565b80611b5e84611ee3565b604051602001611b6f9291906128af565b6040516020818303038152906040529392505050565b600b5460ff1680611baa575073ffffffffffffffffffffffffffffffffffffffff8316155b611c36576040517f08c379a000000000000000000000000000000000000000000000000000000000815260206004820152602360248201527f455243353438343a20746f6b656e206973206e6f74207472616e73666572726160448201527f626c65000000000000000000000000000000000000000000000000000000000060648201526084016104f5565b610a31565b6000818152600d602052604081205473ffffffffffffffffffffffffffffffffffffffff84811691161481611c6f8461080b565b73ffffffffffffffffffffffffffffffffffffffff8681169116149050600080858152600c602052604090205460ff166003811115611cb057611cb061231a565b148015611cba5750815b15611cca5760019250505061034e565b60016000858152600c602052604090205460ff166003811115611cef57611cef61231a565b148015611cf95750805b15611d095760019250505061034e565b60026000858152600c602052604090205460ff166003811115611d2e57611d2e61231a565b148015611d3f57508180611d3f5750805b15611d4f5760019250505061034e565b506000949350505050565b6000611d658261080b565b9050611d75816000846001611744565b611d7e8261080b565b600083815260046020908152604080832080547fffffffffffffffffffffffff000000000000000000000000000000000000000090811690915573ffffffffffffffffffffffffffffffffffffffff85168085526003845282852080547fffffffffffffffffffffffffffffffffffffffffffffffffffffffffffffffff0190558785526002909352818420805490911690555192935084927fddf252ad1be2c89b69c2b068fc378daa952ba7f163c4a11628f55a4df523b3ef908390a45050565b611e4a8383611fa1565b611e576000848484611905565b6105bd576040517f08c379a000000000000000000000000000000000000000000000000000000000815260206004820152603260248201527f4552433732313a207472616e7366657220746f206e6f6e20455243373231526560448201527f63656976657220696d706c656d656e746572000000000000000000000000000060648201526084016104f5565b60606000611ef0836121d4565b600101905060008167ffffffffffffffff811115611f1057611f106124f1565b6040519080825280601f01601f191660200182016040528015611f3a576020820181803683370190505b5090508181016020015b7fffffffffffffffffffffffffffffffffffffffffffffffffffffffffffffffff017f3031323334353637383961626364656600000000000000000000000000000000600a86061a8153600a8504945084611f4457509392505050565b73ffffffffffffffffffffffffffffffffffffffff821661201e576040517f08c379a000000000000000000000000000000000000000000000000000000000815260206004820181905260248201527f4552433732313a206d696e7420746f20746865207a65726f206164647265737360448201526064016104f5565b60008181526002602052604090205473ffffffffffffffffffffffffffffffffffffffff16156120aa576040517f08c379a000000000000000000000000000000000000000000000000000000000815260206004820152601c60248201527f4552433732313a20746f6b656e20616c7265616479206d696e7465640000000060448201526064016104f5565b6120b8600083836001611744565b60008181526002602052604090205473ffffffffffffffffffffffffffffffffffffffff1615612144576040517f08c379a000000000000000000000000000000000000000000000000000000000815260206004820152601c60248201527f4552433732313a20746f6b656e20616c7265616479206d696e7465640000000060448201526064016104f5565b73ffffffffffffffffffffffffffffffffffffffff8216600081815260036020908152604080832080546001019055848352600290915280822080547fffffffffffffffffffffffff0000000000000000000000000000000000000000168417905551839291907fddf252ad1be2c89b69c2b068fc378daa952ba7f163c4a11628f55a4df523b3ef908290a45050565b6000807a184f03e93ff9f4daa797ed6e38ed64bf6a1f010000000000000000831061221d577a184f03e93ff9f4daa797ed6e38ed64bf6a1f010000000000000000830492506040015b6d04ee2d6d415b85acef81000000008310612249576d04ee2d6d415b85acef8100000000830492506020015b662386f26fc10000831061226757662386f26fc10000830492506010015b6305f5e100831061227f576305f5e100830492506008015b612710831061229357612710830492506004015b606483106122a5576064830492506002015b600a831061034e5760010192915050565b7fffffffff000000000000000000000000000000000000000000000000000000008116811461096e57600080fd5b6000602082840312156122f657600080fd5b8135610a6a816122b6565b60006020828403121561231357600080fd5b5035919050565b7f4e487b7100000000000000000000000000000000000000000000000000000000600052602160045260246000fd5b6020810160048310612384577f4e487b7100000000000000000000000000000000000000000000000000000000600052602160045260246000fd5b91905290565b60005b838110156123a557818101518382015260200161238d565b50506000910152565b600081518084526123c681602086016020860161238a565b601f017fffffffffffffffffffffffffffffffffffffffffffffffffffffffffffffffe0169290920160200192915050565b602081526000610a6a60208301846123ae565b803573ffffffffffffffffffffffffffffffffffffffff8116811461242f57600080fd5b919050565b6000806040838503121561244757600080fd5b6124508361240b565b946020939093013593505050565b60008060006060848603121561247357600080fd5b61247c8461240b565b925061248a6020850161240b565b9150604084013590509250925092565b6000602082840312156124ac57600080fd5b610a6a8261240b565b600080604083850312156124c857600080fd5b6124d18361240b565b9150602083013580151581146124e657600080fd5b809150509250929050565b7f4e487b7100000000000000000000000000000000000000000000000000000000600052604160045260246000fd5b600067ffffffffffffffff8084111561253b5761253b6124f1565b604051601f85017fffffffffffffffffffffffffffffffffffffffffffffffffffffffffffffffe0908116603f01168101908282118183101715612581576125816124f1565b8160405280935085815286868601111561259a57600080fd5b858560208301376000602087830101525050509392505050565b600080600080608085870312156125ca57600080fd5b6125d38561240b565b93506125e16020860161240b565b925060408501359150606085013567ffffffffffffffff81111561260457600080fd5b8501601f8101871361261557600080fd5b61262487823560208401612520565b91505092959194509250565b6000806040838503121561264357600080fd5b61264c8361240b565b9150602083013567ffffffffffffffff81111561266857600080fd5b8301601f8101851361267957600080fd5b61268885823560208401612520565b9150509250929050565b600080604083850312156126a557600080fd5b6126ae8361240b565b91506126bc6020840161240b565b90509250929050565b600181811c908216806126d957607f821691505b602082108103612712577f4e487b7100000000000000000000000000000000000000000000000000000000600052602260045260246000fd5b50919050565b7f4e487b7100000000000000000000000000000000000000000000000000000000600052603260045260246000fd5b601f8211156105bd57600081815260208120601f850160051c8101602086101561276e5750805b601f850160051c820191505b8181101561278d5782815560010161277a565b505050505050565b815167ffffffffffffffff8111156127af576127af6124f1565b6127c3816127bd84546126c5565b84612747565b602080601f83116001811461281657600084156127e05750858301515b7fffffffffffffffffffffffffffffffffffffffffffffffffffffffffffffffff600386901b1c1916600185901b17855561278d565b6000858152602081207fffffffffffffffffffffffffffffffffffffffffffffffffffffffffffffffe08616915b8281101561286357888601518255948401946001909101908401612844565b508582101561289f57878501517fffffffffffffffffffffffffffffffffffffffffffffffffffffffffffffffff600388901b60f8161c191681555b5050505050600190811b01905550565b600083516128c181846020880161238a565b8351908301906128d581836020880161238a565b01949350505050565b600073ffffffffffffffffffffffffffffffffffffffff80871683528086166020840152508360408301526080606083015261291d60808301846123ae565b9695505050505050565b60006020828403121561293957600080fd5b8151610a6a816122b656fea264697066735822122012556cc41ad391e83c3ca848a3580db817091f54fbab771b549ae694efb1433564736f6c63430008110033",
    "linkReferences": {}
  },
  "methodIdentifiers": {
    "approve(address,uint256)": "095ea7b3",
    "balanceOf(address)": "70a08231",
    "burnAuth(uint256)": "0489b56f",
    "deleteCertificate(uint256)": "883eeb6e",
    "getApproved(uint256)": "081812fc",
    "isApprovedForAll(address,address)": "e985e9c5",
    "issueCertificate(address,string)": "bb721aab",
    "name()": "06fdde03",
    "ownerOf(uint256)": "6352211e",
    "safeTransferFrom(address,address,uint256)": "42842e0e",
    "safeTransferFrom(address,address,uint256,bytes)": "b88d4fde",
    "setApprovalForAll(address,bool)": "a22cb465",
    "supportsInterface(bytes4)": "01ffc9a7",
    "symbol()": "95d89b41",
    "tokenByIndex(uint256)": "4f6ccce7",
    "tokenOfOwnerByIndex(address,uint256)": "2f745c59",
    "tokenURI(uint256)": "c87b56dd",
    "totalSupply()": "18160ddd",
    "transferFrom(address,address,uint256)": "23b872dd"
  },
  "id": 45
}