{
  "abi": [
    {
      "inputs": [
        {
          "internalType": "address",
          "name": "_certificateNFTAddress",
          "type": "address"
        },
        {
          "internalType": "address",
          "name": "_multiSigWalletAddress",
          "type": "address"
        }
      ],
      "stateMutability": "nonpayable",
      "type": "constructor"
    },
    {
      "anonymous": false,
      "inputs": [
        {
          "indexed": true,
          "internalType": "address",
          "name": "previousOwner",
          "type": "address"
        },
        {
          "indexed": true,
          "internalType": "address",
          "name": "newOwner",
          "type": "address"
        }
      ],
      "name": "OwnershipTransferred",
      "type": "event"
    },
    {
      "inputs": [],
      "name": "certificateNFTAddress",
      "outputs": [
        {
          "internalType": "address",
          "name": "",
          "type": "address"
        }
      ],
      "stateMutability": "view",
      "type": "function"
    },
    {
      "inputs": [
        {
          "internalType": "address[]",
          "name": "_owners",
          "type": "address[]"
        },
        {
          "internalType": "uint256",
          "name": "_numConfirmationsRequired",
          "type": "uint256"
        }
      ],
      "name": "createMultiSigWallet",
      "outputs": [
        {
          "internalType": "address",
          "name": "",
          "type": "address"
        }
      ],
      "stateMutability": "nonpayable",
      "type": "function"
    },
    {
      "inputs": [
        {
          "internalType": "uint256",
          "name": "tokenId",
          "type": "uint256"
        }
      ],
      "name": "deleteCertificate",
      "outputs": [],
      "stateMutability": "nonpayable",
      "type": "function"
    },
    {
      "inputs": [
        {
          "internalType": "address",
          "name": "_to",
          "type": "address"
        },
        {
          "internalType": "string",
          "name": "_uri",
          "type": "string"
        }
      ],
      "name": "issueCertificate",
      "outputs": [],
      "stateMutability": "nonpayable",
      "type": "function"
    },
    {
      "inputs": [],
      "name": "multiSigWalletAddress",
      "outputs": [
        {
          "internalType": "address",
          "name": "",
          "type": "address"
        }
      ],
      "stateMutability": "view",
      "type": "function"
    },
    {
      "inputs": [
        {
          "internalType": "address",
          "name": "",
          "type": "address"
        },
        {
          "internalType": "uint256",
          "name": "",
          "type": "uint256"
        }
      ],
      "name": "multiSigWalletsOf",
      "outputs": [
        {
          "internalType": "address",
          "name": "",
          "type": "address"
        }
      ],
      "stateMutability": "view",
      "type": "function"
    },
    {
      "inputs": [],
      "name": "owner",
      "outputs": [
        {
          "internalType": "address",
          "name": "",
          "type": "address"
        }
      ],
      "stateMutability": "view",
      "type": "function"
    },
    {
      "inputs": [],
      "name": "renounceOwnership",
      "outputs": [],
      "stateMutability": "nonpayable",
      "type": "function"
    },
    {
      "inputs": [
        {
          "internalType": "address",
          "name": "_addr",
          "type": "address"
        }
      ],
      "name": "setCertificateNFTAddress",
      "outputs": [],
      "stateMutability": "nonpayable",
      "type": "function"
    },
    {
      "inputs": [
        {
          "internalType": "address",
          "name": "_addr",
          "type": "address"
        }
      ],
      "name": "setMultiSigWalletAddress",
      "outputs": [],
      "stateMutability": "nonpayable",
      "type": "function"
    },
    {
      "inputs": [
        {
          "internalType": "address",
          "name": "newOwner",
          "type": "address"
        }
      ],
      "name": "transferOwnership",
      "outputs": [],
      "stateMutability": "nonpayable",
      "type": "function"
    }
  ],
  "bytecode": {
    "object": "0x608060405234801561001057600080fd5b50604051610d3e380380610d3e83398101604081905261002f916100d5565b61003833610069565b600180546001600160a01b039384166001600160a01b03199182161790915560028054929093169116179055610108565b600080546001600160a01b038381166001600160a01b0319831681178455604051919092169283917f8be0079c531659141344cd1fd0a4f28419497f9722a3daafe3b4186f6b6457e09190a35050565b80516001600160a01b03811681146100d057600080fd5b919050565b600080604083850312156100e857600080fd5b6100f1836100b9565b91506100ff602084016100b9565b90509250929050565b610c27806101176000396000f3fe608060405234801561001057600080fd5b50600436106100c95760003560e01c80638da5cb5b11610081578063aba38e861161005b578063aba38e86146101a9578063bb721aab146101bc578063f2fde38b146101cf57600080fd5b80638da5cb5b14610165578063989c59c814610183578063a1eff9251461019657600080fd5b80636d1f451b116100b25780636d1f451b1461012c578063715018a61461014c578063883eeb6e1461015457600080fd5b80634747b0be146100ce5780634efbda18146100e3575b600080fd5b6100e16100dc366004610808565b6101e2565b005b6001546101039073ffffffffffffffffffffffffffffffffffffffff1681565b60405173ffffffffffffffffffffffffffffffffffffffff909116815260200160405180910390f35b6002546101039073ffffffffffffffffffffffffffffffffffffffff1681565b6100e1610231565b6100e161016236600461082a565b50565b60005473ffffffffffffffffffffffffffffffffffffffff16610103565b6101036101913660046108c1565b610245565b6100e16101a4366004610808565b6103a4565b6101036101b7366004610974565b6103f3565b6100e16101ca36600461099e565b610438565b6100e16101dd366004610808565b61056d565b6101ea610626565b600180547fffffffffffffffffffffffff00000000000000000000000000000000000000001673ffffffffffffffffffffffffffffffffffffffff92909216919091179055565b610239610626565b61024360006106a7565b565b600254600090819061026c9073ffffffffffffffffffffffffffffffffffffffff1661071c565b6040517f60b5bb3f00000000000000000000000000000000000000000000000000000000815290915073ffffffffffffffffffffffffffffffffffffffff8216906360b5bb3f906102c39087908790600401610a62565b600060405180830381600087803b1580156102dd57600080fd5b505af11580156102f1573d6000803e3d6000fd5b5050505060005b845181101561039c576003600086838151811061031757610317610ac0565b60209081029190910181015173ffffffffffffffffffffffffffffffffffffffff9081168352828201939093526040909101600090812080546001810182559082529190200180547fffffffffffffffffffffffff0000000000000000000000000000000000000000169184169190911790558061039481610aef565b9150506102f8565b509392505050565b6103ac610626565b600280547fffffffffffffffffffffffff00000000000000000000000000000000000000001673ffffffffffffffffffffffffffffffffffffffff92909216919091179055565b6003602052816000526040600020818154811061040f57600080fd5b60009182526020909120015473ffffffffffffffffffffffffffffffffffffffff169150829050565b6001546040517fd204c45e00000000000000000000000000000000000000000000000000000000815260009173ffffffffffffffffffffffffffffffffffffffff169063d204c45e906104919086908690600401610b4e565b6020604051808303816000875af11580156104b0573d6000803e3d6000fd5b505050506040513d601f19601f820116820180604052508101906104d49190610bd8565b6001546040517f42842e0e00000000000000000000000000000000000000000000000000000000815233600482015273ffffffffffffffffffffffffffffffffffffffff8681166024830152604482018490529293509116906342842e0e90606401600060405180830381600087803b15801561055057600080fd5b505af1158015610564573d6000803e3d6000fd5b50505050505050565b610575610626565b73ffffffffffffffffffffffffffffffffffffffff811661061d576040517f08c379a000000000000000000000000000000000000000000000000000000000815260206004820152602660248201527f4f776e61626c653a206e6577206f776e657220697320746865207a65726f206160448201527f646472657373000000000000000000000000000000000000000000000000000060648201526084015b60405180910390fd5b610162816106a7565b60005473ffffffffffffffffffffffffffffffffffffffff163314610243576040517f08c379a000000000000000000000000000000000000000000000000000000000815260206004820181905260248201527f4f776e61626c653a2063616c6c6572206973206e6f7420746865206f776e65726044820152606401610614565b6000805473ffffffffffffffffffffffffffffffffffffffff8381167fffffffffffffffffffffffff0000000000000000000000000000000000000000831681178455604051919092169283917f8be0079c531659141344cd1fd0a4f28419497f9722a3daafe3b4186f6b6457e09190a35050565b6000763d602d80600a3d3981f3363d3d373d3d3d363d730000008260601b60e81c176000526e5af43d82803e903d91602b57fd5bf38260781b17602052603760096000f0905073ffffffffffffffffffffffffffffffffffffffff81166107df576040517f08c379a000000000000000000000000000000000000000000000000000000000815260206004820152601660248201527f455243313136373a20637265617465206661696c6564000000000000000000006044820152606401610614565b919050565b803573ffffffffffffffffffffffffffffffffffffffff811681146107df57600080fd5b60006020828403121561081a57600080fd5b610823826107e4565b9392505050565b60006020828403121561083c57600080fd5b5035919050565b7f4e487b7100000000000000000000000000000000000000000000000000000000600052604160045260246000fd5b604051601f82017fffffffffffffffffffffffffffffffffffffffffffffffffffffffffffffffe016810167ffffffffffffffff811182821017156108b9576108b9610843565b604052919050565b600080604083850312156108d457600080fd5b823567ffffffffffffffff808211156108ec57600080fd5b818501915085601f83011261090057600080fd5b813560208282111561091457610914610843565b8160051b9250610925818401610872565b828152928401810192818101908985111561093f57600080fd5b948201945b8486101561096457610955866107e4565b82529482019490820190610944565b9997909101359750505050505050565b6000806040838503121561098757600080fd5b610990836107e4565b946020939093013593505050565b600080604083850312156109b157600080fd5b6109ba836107e4565b915060208084013567ffffffffffffffff808211156109d857600080fd5b818601915086601f8301126109ec57600080fd5b8135818111156109fe576109fe610843565b610a2e847fffffffffffffffffffffffffffffffffffffffffffffffffffffffffffffffe0601f84011601610872565b91508082528784828501011115610a4457600080fd5b80848401858401376000848284010152508093505050509250929050565b604080825283519082018190526000906020906060840190828701845b82811015610ab157815173ffffffffffffffffffffffffffffffffffffffff1684529284019290840190600101610a7f565b50505092019290925292915050565b7f4e487b7100000000000000000000000000000000000000000000000000000000600052603260045260246000fd5b60007fffffffffffffffffffffffffffffffffffffffffffffffffffffffffffffffff8203610b47577f4e487b7100000000000000000000000000000000000000000000000000000000600052601160045260246000fd5b5060010190565b73ffffffffffffffffffffffffffffffffffffffff8316815260006020604081840152835180604085015260005b81811015610b9857858101830151858201606001528201610b7c565b5060006060828601015260607fffffffffffffffffffffffffffffffffffffffffffffffffffffffffffffffe0601f830116850101925050509392505050565b600060208284031215610bea57600080fd5b505191905056fea2646970667358221220b75d8419c719265867caf7e067265b35bef45cfdd691d25e3710298b7a4a42b964736f6c63430008110033",
    "linkReferences": {}
  },
  "methodIdentifiers": {
    "certificateNFTAddress()": "4efbda18",
    "createMultiSigWallet(address[],uint256)": "989c59c8",
    "deleteCertificate(uint256)": "883eeb6e",
    "issueCertificate(address,string)": "bb721aab",
    "multiSigWalletAddress()": "6d1f451b",
    "multiSigWalletsOf(address,uint256)": "aba38e86",
    "owner()": "8da5cb5b",
    "renounceOwnership()": "715018a6",
    "setCertificateNFTAddress(address)": "4747b0be",
    "setMultiSigWalletAddress(address)": "a1eff925",
    "transferOwnership(address)": "f2fde38b"
  },
  "id": 45
}