{
  "abi": [
    {
      "anonymous": false,
      "inputs": [
        {
          "indexed": true,
          "internalType": "address",
          "name": "wallet",
          "type": "address"
        },
        {
          "indexed": true,
          "internalType": "address[]",
          "name": "owners",
          "type": "address[]"
        }
      ],
      "name": "MultiSigWalletCreated",
      "type": "event"
    },
    {
      "anonymous": false,
      "inputs": [
        {
          "indexed": true,
          "internalType": "address",
          "name": "previousOwner",
          "type": "address"
        },
        {
          "indexed": true,
          "internalType": "address",
          "name": "newOwner",
          "type": "address"
        }
      ],
      "name": "OwnershipTransferred",
      "type": "event"
    },
    {
      "inputs": [
        {
          "internalType": "address[]",
          "name": "_owners",
          "type": "address[]"
        },
        {
          "internalType": "uint256",
          "name": "_numConfirmationsRequired",
          "type": "uint256"
        }
      ],
      "name": "createMultiSigWallet",
      "outputs": [
        {
          "internalType": "address",
          "name": "",
          "type": "address"
        }
      ],
      "stateMutability": "nonpayable",
      "type": "function"
    },
    {
      "inputs": [],
      "name": "multiSigWallet",
      "outputs": [
        {
          "internalType": "contract MultiSigWallet",
          "name": "",
          "type": "address"
        }
      ],
      "stateMutability": "view",
      "type": "function"
    },
    {
      "inputs": [
        {
          "internalType": "address",
          "name": "owner",
          "type": "address"
        }
      ],
      "name": "multiSigWalletsOf",
      "outputs": [
        {
          "internalType": "address[]",
          "name": "",
          "type": "address[]"
        }
      ],
      "stateMutability": "view",
      "type": "function"
    },
    {
      "inputs": [],
      "name": "owner",
      "outputs": [
        {
          "internalType": "address",
          "name": "",
          "type": "address"
        }
      ],
      "stateMutability": "view",
      "type": "function"
    },
    {
      "inputs": [],
      "name": "renounceOwnership",
      "outputs": [],
      "stateMutability": "nonpayable",
      "type": "function"
    },
    {
      "inputs": [
        {
          "internalType": "address",
          "name": "_addr",
          "type": "address"
        }
      ],
      "name": "setMultiSigWalletAddress",
      "outputs": [],
      "stateMutability": "nonpayable",
      "type": "function"
    },
    {
      "inputs": [
        {
          "internalType": "address",
          "name": "newOwner",
          "type": "address"
        }
      ],
      "name": "transferOwnership",
      "outputs": [],
      "stateMutability": "nonpayable",
      "type": "function"
    }
  ],
  "bytecode": {
    "object": "0x608060405234801561001057600080fd5b5061001a3361001f565b61006f565b600080546001600160a01b038381166001600160a01b0319831681178455604051919092169283917f8be0079c531659141344cd1fd0a4f28419497f9722a3daafe3b4186f6b6457e09190a35050565b6109638061007e6000396000f3fe608060405234801561001057600080fd5b506004361061007d5760003560e01c8063989c59c81161005b578063989c59c8146100f4578063a1eff92514610107578063a9eb2e371461011a578063f2fde38b1461013a57600080fd5b80634b8feb4f14610082578063715018a6146100cc5780638da5cb5b146100d6575b600080fd5b6001546100a29073ffffffffffffffffffffffffffffffffffffffff1681565b60405173ffffffffffffffffffffffffffffffffffffffff90911681526020015b60405180910390f35b6100d461014d565b005b60005473ffffffffffffffffffffffffffffffffffffffff166100a2565b6100a26101023660046106c2565b610161565b6100d46101153660046107ab565b610316565b61012d6101283660046107ab565b610365565b6040516100c3919061081e565b6100d46101483660046107ab565b6103f5565b6101556104b1565b61015f6000610532565b565b60015460009081906101889073ffffffffffffffffffffffffffffffffffffffff166105a7565b6040517f60b5bb3f00000000000000000000000000000000000000000000000000000000815290915073ffffffffffffffffffffffffffffffffffffffff8216906360b5bb3f906101df9087908790600401610831565b600060405180830381600087803b1580156101f957600080fd5b505af115801561020d573d6000803e3d6000fd5b5050505060005b84518110156102b8576002600086838151811061023357610233610853565b60209081029190910181015173ffffffffffffffffffffffffffffffffffffffff9081168352828201939093526040909101600090812080546001810182559082529190200180547fffffffffffffffffffffffff000000000000000000000000000000000000000016918416919091179055806102b081610882565b915050610214565b50836040516102c791906108e1565b6040519081900381209073ffffffffffffffffffffffffffffffffffffffff8316907f4ab10f5dc2110c2cab0ae5820620df2b589c78ac3d17f4e9e817dab7ffebf08c90600090a39392505050565b61031e6104b1565b600180547fffffffffffffffffffffffff00000000000000000000000000000000000000001673ffffffffffffffffffffffffffffffffffffffff92909216919091179055565b73ffffffffffffffffffffffffffffffffffffffff81166000908152600260209081526040918290208054835181840281018401909452808452606093928301828280156103e957602002820191906000526020600020905b815473ffffffffffffffffffffffffffffffffffffffff1681526001909101906020018083116103be575b50505050509050919050565b6103fd6104b1565b73ffffffffffffffffffffffffffffffffffffffff81166104a5576040517f08c379a000000000000000000000000000000000000000000000000000000000815260206004820152602660248201527f4f776e61626c653a206e6577206f776e657220697320746865207a65726f206160448201527f646472657373000000000000000000000000000000000000000000000000000060648201526084015b60405180910390fd5b6104ae81610532565b50565b60005473ffffffffffffffffffffffffffffffffffffffff16331461015f576040517f08c379a000000000000000000000000000000000000000000000000000000000815260206004820181905260248201527f4f776e61626c653a2063616c6c6572206973206e6f7420746865206f776e6572604482015260640161049c565b6000805473ffffffffffffffffffffffffffffffffffffffff8381167fffffffffffffffffffffffff0000000000000000000000000000000000000000831681178455604051919092169283917f8be0079c531659141344cd1fd0a4f28419497f9722a3daafe3b4186f6b6457e09190a35050565b6000763d602d80600a3d3981f3363d3d373d3d3d363d730000008260601b60e81c176000526e5af43d82803e903d91602b57fd5bf38260781b17602052603760096000f0905073ffffffffffffffffffffffffffffffffffffffff811661066a576040517f08c379a000000000000000000000000000000000000000000000000000000000815260206004820152601660248201527f455243313136373a20637265617465206661696c656400000000000000000000604482015260640161049c565b919050565b7f4e487b7100000000000000000000000000000000000000000000000000000000600052604160045260246000fd5b803573ffffffffffffffffffffffffffffffffffffffff8116811461066a57600080fd5b600080604083850312156106d557600080fd5b823567ffffffffffffffff808211156106ed57600080fd5b818501915085601f83011261070157600080fd5b81356020828211156107155761071561066f565b8160051b6040517fffffffffffffffffffffffffffffffffffffffffffffffffffffffffffffffe0603f830116810181811086821117156107585761075861066f565b60405292835281830193508481018201928984111561077657600080fd5b948201945b8386101561079b5761078c8661069e565b8552948201949382019361077b565b9997909101359750505050505050565b6000602082840312156107bd57600080fd5b6107c68261069e565b9392505050565b600081518084526020808501945080840160005b8381101561081357815173ffffffffffffffffffffffffffffffffffffffff16875295820195908201906001016107e1565b509495945050505050565b6020815260006107c660208301846107cd565b60408152600061084460408301856107cd565b90508260208301529392505050565b7f4e487b7100000000000000000000000000000000000000000000000000000000600052603260045260246000fd5b60007fffffffffffffffffffffffffffffffffffffffffffffffffffffffffffffffff82036108da577f4e487b7100000000000000000000000000000000000000000000000000000000600052601160045260246000fd5b5060010190565b815160009082906020808601845b8381101561092157815173ffffffffffffffffffffffffffffffffffffffff16855293820193908201906001016108ef565b5092969550505050505056fea26469706673582212203b3c0035a71ad7c2317114491eae78ff04fc77d2a592f9b321a57233fae9c52764736f6c63430008110033",
    "linkReferences": {}
  },
  "methodIdentifiers": {
    "createMultiSigWallet(address[],uint256)": "989c59c8",
    "multiSigWallet()": "4b8feb4f",
    "multiSigWalletsOf(address)": "a9eb2e37",
    "owner()": "8da5cb5b",
    "renounceOwnership()": "715018a6",
    "setMultiSigWalletAddress(address)": "a1eff925",
    "transferOwnership(address)": "f2fde38b"
  },
  "id": 47
}