{
  "abi": [
    {
      "inputs": [
        {
          "internalType": "address",
          "name": "_certificateNFTAddress",
          "type": "address"
        },
        {
          "internalType": "address",
          "name": "_multiSigWalletAddress",
          "type": "address"
        }
      ],
      "stateMutability": "nonpayable",
      "type": "constructor"
    },
    {
      "anonymous": false,
      "inputs": [
        {
          "indexed": true,
          "internalType": "address",
          "name": "previousOwner",
          "type": "address"
        },
        {
          "indexed": true,
          "internalType": "address",
          "name": "newOwner",
          "type": "address"
        }
      ],
      "name": "OwnershipTransferred",
      "type": "event"
    },
    {
      "inputs": [],
      "name": "certificateNFTAddress",
      "outputs": [
        {
          "internalType": "address",
          "name": "",
          "type": "address"
        }
      ],
      "stateMutability": "view",
      "type": "function"
    },
    {
      "inputs": [
        {
          "internalType": "address[]",
          "name": "_owners",
          "type": "address[]"
        },
        {
          "internalType": "uint256",
          "name": "_numConfirmationsRequired",
          "type": "uint256"
        }
      ],
      "name": "createMultiSigWallet",
      "outputs": [
        {
          "internalType": "address",
          "name": "",
          "type": "address"
        }
      ],
      "stateMutability": "nonpayable",
      "type": "function"
    },
    {
      "inputs": [
        {
          "internalType": "uint256",
          "name": "tokenId",
          "type": "uint256"
        }
      ],
      "name": "deleteCertificate",
      "outputs": [],
      "stateMutability": "nonpayable",
      "type": "function"
    },
    {
      "inputs": [
        {
          "internalType": "address",
          "name": "_to",
          "type": "address"
        },
        {
          "internalType": "string",
          "name": "_uri",
          "type": "string"
        }
      ],
      "name": "issueCertificate",
      "outputs": [],
      "stateMutability": "nonpayable",
      "type": "function"
    },
    {
      "inputs": [],
      "name": "multiSigWalletAddress",
      "outputs": [
        {
          "internalType": "address",
          "name": "",
          "type": "address"
        }
      ],
      "stateMutability": "view",
      "type": "function"
    },
    {
      "inputs": [
        {
          "internalType": "address",
          "name": "",
          "type": "address"
        },
        {
          "internalType": "uint256",
          "name": "",
          "type": "uint256"
        }
      ],
      "name": "multiSigWalletsOf",
      "outputs": [
        {
          "internalType": "address",
          "name": "",
          "type": "address"
        }
      ],
      "stateMutability": "view",
      "type": "function"
    },
    {
      "inputs": [],
      "name": "owner",
      "outputs": [
        {
          "internalType": "address",
          "name": "",
          "type": "address"
        }
      ],
      "stateMutability": "view",
      "type": "function"
    },
    {
      "inputs": [],
      "name": "renounceOwnership",
      "outputs": [],
      "stateMutability": "nonpayable",
      "type": "function"
    },
    {
      "inputs": [
        {
          "internalType": "address",
          "name": "_addr",
          "type": "address"
        }
      ],
      "name": "setCertificateNFTAddress",
      "outputs": [],
      "stateMutability": "nonpayable",
      "type": "function"
    },
    {
      "inputs": [
        {
          "internalType": "address",
          "name": "_addr",
          "type": "address"
        }
      ],
      "name": "setMultiSigWalletAddress",
      "outputs": [],
      "stateMutability": "nonpayable",
      "type": "function"
    },
    {
      "inputs": [
        {
          "internalType": "address",
          "name": "newOwner",
          "type": "address"
        }
      ],
      "name": "transferOwnership",
      "outputs": [],
      "stateMutability": "nonpayable",
      "type": "function"
    }
  ],
  "bytecode": {
    "object": "0x608060405234801561001057600080fd5b50604051610de1380380610de183398101604081905261002f916100d5565b61003833610069565b600180546001600160a01b039384166001600160a01b03199182161790915560028054929093169116179055610108565b600080546001600160a01b038381166001600160a01b0319831681178455604051919092169283917f8be0079c531659141344cd1fd0a4f28419497f9722a3daafe3b4186f6b6457e09190a35050565b80516001600160a01b03811681146100d057600080fd5b919050565b600080604083850312156100e857600080fd5b6100f1836100b9565b91506100ff602084016100b9565b90509250929050565b610cca806101176000396000f3fe608060405234801561001057600080fd5b50600436106100c95760003560e01c80638da5cb5b11610081578063aba38e861161005b578063aba38e86146101a9578063bb721aab146101bc578063f2fde38b146101cf57600080fd5b80638da5cb5b14610165578063989c59c814610183578063a1eff9251461019657600080fd5b80636d1f451b116100b25780636d1f451b1461012c578063715018a61461014c578063883eeb6e1461015457600080fd5b80634747b0be146100ce5780634efbda18146100e3575b600080fd5b6100e16100dc3660046108ab565b6101e2565b005b6001546101039073ffffffffffffffffffffffffffffffffffffffff1681565b60405173ffffffffffffffffffffffffffffffffffffffff909116815260200160405180910390f35b6002546101039073ffffffffffffffffffffffffffffffffffffffff1681565b6100e1610231565b6100e16101623660046108cd565b50565b60005473ffffffffffffffffffffffffffffffffffffffff16610103565b610103610191366004610964565b610245565b6100e16101a43660046108ab565b6103a4565b6101036101b7366004610a17565b6103f3565b6100e16101ca366004610a41565b610438565b6100e16101dd3660046108ab565b610615565b6101ea6106c9565b600180547fffffffffffffffffffffffff00000000000000000000000000000000000000001673ffffffffffffffffffffffffffffffffffffffff92909216919091179055565b6102396106c9565b610243600061074a565b565b600254600090819061026c9073ffffffffffffffffffffffffffffffffffffffff166107bf565b6040517f60b5bb3f00000000000000000000000000000000000000000000000000000000815290915073ffffffffffffffffffffffffffffffffffffffff8216906360b5bb3f906102c39087908790600401610b05565b600060405180830381600087803b1580156102dd57600080fd5b505af11580156102f1573d6000803e3d6000fd5b5050505060005b845181101561039c576003600086838151811061031757610317610b63565b60209081029190910181015173ffffffffffffffffffffffffffffffffffffffff9081168352828201939093526040909101600090812080546001810182559082529190200180547fffffffffffffffffffffffff0000000000000000000000000000000000000000169184169190911790558061039481610b92565b9150506102f8565b509392505050565b6103ac6106c9565b600280547fffffffffffffffffffffffff00000000000000000000000000000000000000001673ffffffffffffffffffffffffffffffffffffffff92909216919091179055565b6003602052816000526040600020818154811061040f57600080fd5b60009182526020909120015473ffffffffffffffffffffffffffffffffffffffff169150829050565b73ffffffffffffffffffffffffffffffffffffffff82166104e0576040517f08c379a000000000000000000000000000000000000000000000000000000000815260206004820152603260248201527f4d61696e466163746f72793a2043616e2774206973737565206365727469666960448201527f6361746520746f2061646472657373283029000000000000000000000000000060648201526084015b60405180910390fd5b6001546040517fd204c45e00000000000000000000000000000000000000000000000000000000815260009173ffffffffffffffffffffffffffffffffffffffff169063d204c45e906105399033908690600401610bf1565b6020604051808303816000875af1158015610558573d6000803e3d6000fd5b505050506040513d601f19601f8201168201806040525081019061057c9190610c7b565b6001546040517f42842e0e00000000000000000000000000000000000000000000000000000000815233600482015273ffffffffffffffffffffffffffffffffffffffff8681166024830152604482018490529293509116906342842e0e90606401600060405180830381600087803b1580156105f857600080fd5b505af115801561060c573d6000803e3d6000fd5b50505050505050565b61061d6106c9565b73ffffffffffffffffffffffffffffffffffffffff81166106c0576040517f08c379a000000000000000000000000000000000000000000000000000000000815260206004820152602660248201527f4f776e61626c653a206e6577206f776e657220697320746865207a65726f206160448201527f646472657373000000000000000000000000000000000000000000000000000060648201526084016104d7565b6101628161074a565b60005473ffffffffffffffffffffffffffffffffffffffff163314610243576040517f08c379a000000000000000000000000000000000000000000000000000000000815260206004820181905260248201527f4f776e61626c653a2063616c6c6572206973206e6f7420746865206f776e657260448201526064016104d7565b6000805473ffffffffffffffffffffffffffffffffffffffff8381167fffffffffffffffffffffffff0000000000000000000000000000000000000000831681178455604051919092169283917f8be0079c531659141344cd1fd0a4f28419497f9722a3daafe3b4186f6b6457e09190a35050565b6000763d602d80600a3d3981f3363d3d373d3d3d363d730000008260601b60e81c176000526e5af43d82803e903d91602b57fd5bf38260781b17602052603760096000f0905073ffffffffffffffffffffffffffffffffffffffff8116610882576040517f08c379a000000000000000000000000000000000000000000000000000000000815260206004820152601660248201527f455243313136373a20637265617465206661696c65640000000000000000000060448201526064016104d7565b919050565b803573ffffffffffffffffffffffffffffffffffffffff8116811461088257600080fd5b6000602082840312156108bd57600080fd5b6108c682610887565b9392505050565b6000602082840312156108df57600080fd5b5035919050565b7f4e487b7100000000000000000000000000000000000000000000000000000000600052604160045260246000fd5b604051601f82017fffffffffffffffffffffffffffffffffffffffffffffffffffffffffffffffe016810167ffffffffffffffff8111828210171561095c5761095c6108e6565b604052919050565b6000806040838503121561097757600080fd5b823567ffffffffffffffff8082111561098f57600080fd5b818501915085601f8301126109a357600080fd5b81356020828211156109b7576109b76108e6565b8160051b92506109c8818401610915565b82815292840181019281810190898511156109e257600080fd5b948201945b84861015610a07576109f886610887565b825294820194908201906109e7565b9997909101359750505050505050565b60008060408385031215610a2a57600080fd5b610a3383610887565b946020939093013593505050565b60008060408385031215610a5457600080fd5b610a5d83610887565b915060208084013567ffffffffffffffff80821115610a7b57600080fd5b818601915086601f830112610a8f57600080fd5b813581811115610aa157610aa16108e6565b610ad1847fffffffffffffffffffffffffffffffffffffffffffffffffffffffffffffffe0601f84011601610915565b91508082528784828501011115610ae757600080fd5b80848401858401376000848284010152508093505050509250929050565b604080825283519082018190526000906020906060840190828701845b82811015610b5457815173ffffffffffffffffffffffffffffffffffffffff1684529284019290840190600101610b22565b50505092019290925292915050565b7f4e487b7100000000000000000000000000000000000000000000000000000000600052603260045260246000fd5b60007fffffffffffffffffffffffffffffffffffffffffffffffffffffffffffffffff8203610bea577f4e487b7100000000000000000000000000000000000000000000000000000000600052601160045260246000fd5b5060010190565b73ffffffffffffffffffffffffffffffffffffffff8316815260006020604081840152835180604085015260005b81811015610c3b57858101830151858201606001528201610c1f565b5060006060828601015260607fffffffffffffffffffffffffffffffffffffffffffffffffffffffffffffffe0601f830116850101925050509392505050565b600060208284031215610c8d57600080fd5b505191905056fea2646970667358221220d6a5b8fe5132295890ab07820dce81d0a2b8c05b113236b0eca5b8b48acb3fb464736f6c63430008110033",
    "linkReferences": {}
  },
  "methodIdentifiers": {
    "certificateNFTAddress()": "4efbda18",
    "createMultiSigWallet(address[],uint256)": "989c59c8",
    "deleteCertificate(uint256)": "883eeb6e",
    "issueCertificate(address,string)": "bb721aab",
    "multiSigWalletAddress()": "6d1f451b",
    "multiSigWalletsOf(address,uint256)": "aba38e86",
    "owner()": "8da5cb5b",
    "renounceOwnership()": "715018a6",
    "setCertificateNFTAddress(address)": "4747b0be",
    "setMultiSigWalletAddress(address)": "a1eff925",
    "transferOwnership(address)": "f2fde38b"
  },
  "id": 45
}