{
  "abi": [
    {
      "anonymous": false,
      "inputs": [
        {
          "indexed": true,
          "internalType": "address",
          "name": "previousOwner",
          "type": "address"
        },
        {
          "indexed": true,
          "internalType": "address",
          "name": "newOwner",
          "type": "address"
        }
      ],
      "name": "OwnershipTransferred",
      "type": "event"
    },
    {
      "inputs": [
        {
          "internalType": "address[]",
          "name": "_owners",
          "type": "address[]"
        },
        {
          "internalType": "uint256",
          "name": "_numConfirmationsRequired",
          "type": "uint256"
        }
      ],
      "name": "createMultiSigWallet",
      "outputs": [
        {
          "internalType": "address",
          "name": "",
          "type": "address"
        }
      ],
      "stateMutability": "nonpayable",
      "type": "function"
    },
    {
      "inputs": [],
      "name": "multiSigWallet",
      "outputs": [
        {
          "internalType": "contract MultiSigWallet",
          "name": "",
          "type": "address"
        }
      ],
      "stateMutability": "view",
      "type": "function"
    },
    {
      "inputs": [
        {
          "internalType": "address",
          "name": "",
          "type": "address"
        },
        {
          "internalType": "uint256",
          "name": "",
          "type": "uint256"
        }
      ],
      "name": "multiSigWalletsOf",
      "outputs": [
        {
          "internalType": "address",
          "name": "",
          "type": "address"
        }
      ],
      "stateMutability": "view",
      "type": "function"
    },
    {
      "inputs": [],
      "name": "owner",
      "outputs": [
        {
          "internalType": "address",
          "name": "",
          "type": "address"
        }
      ],
      "stateMutability": "view",
      "type": "function"
    },
    {
      "inputs": [],
      "name": "renounceOwnership",
      "outputs": [],
      "stateMutability": "nonpayable",
      "type": "function"
    },
    {
      "inputs": [
        {
          "internalType": "address",
          "name": "_addr",
          "type": "address"
        }
      ],
      "name": "setMultiSigWalletAddress",
      "outputs": [],
      "stateMutability": "nonpayable",
      "type": "function"
    },
    {
      "inputs": [
        {
          "internalType": "address",
          "name": "newOwner",
          "type": "address"
        }
      ],
      "name": "transferOwnership",
      "outputs": [],
      "stateMutability": "nonpayable",
      "type": "function"
    }
  ],
  "bytecode": {
    "object": "0x608060405234801561001057600080fd5b5061001a3361001f565b61006f565b600080546001600160a01b038381166001600160a01b0319831681178455604051919092169283917f8be0079c531659141344cd1fd0a4f28419497f9722a3daafe3b4186f6b6457e09190a35050565b61086a8061007e6000396000f3fe608060405234801561001057600080fd5b506004361061007d5760003560e01c8063989c59c81161005b578063989c59c8146100f3578063a1eff92514610106578063aba38e8614610119578063f2fde38b1461012c57600080fd5b80634b8feb4f14610082578063715018a6146100cb5780638da5cb5b146100d5575b600080fd5b6001546100a29073ffffffffffffffffffffffffffffffffffffffff1681565b60405173ffffffffffffffffffffffffffffffffffffffff909116815260200160405180910390f35b6100d361013f565b005b60005473ffffffffffffffffffffffffffffffffffffffff166100a2565b6100a2610101366004610613565b610153565b6100d36101143660046106fc565b6102b2565b6100a261012736600461071e565b610301565b6100d361013a3660046106fc565b610346565b610147610402565b6101516000610483565b565b600154600090819061017a9073ffffffffffffffffffffffffffffffffffffffff166104f8565b6040517f60b5bb3f00000000000000000000000000000000000000000000000000000000815290915073ffffffffffffffffffffffffffffffffffffffff8216906360b5bb3f906101d19087908790600401610748565b600060405180830381600087803b1580156101eb57600080fd5b505af11580156101ff573d6000803e3d6000fd5b5050505060005b84518110156102aa5760026000868381518110610225576102256107a6565b60209081029190910181015173ffffffffffffffffffffffffffffffffffffffff9081168352828201939093526040909101600090812080546001810182559082529190200180547fffffffffffffffffffffffff000000000000000000000000000000000000000016918416919091179055806102a2816107d5565b915050610206565b509392505050565b6102ba610402565b600180547fffffffffffffffffffffffff00000000000000000000000000000000000000001673ffffffffffffffffffffffffffffffffffffffff92909216919091179055565b6002602052816000526040600020818154811061031d57600080fd5b60009182526020909120015473ffffffffffffffffffffffffffffffffffffffff169150829050565b61034e610402565b73ffffffffffffffffffffffffffffffffffffffff81166103f6576040517f08c379a000000000000000000000000000000000000000000000000000000000815260206004820152602660248201527f4f776e61626c653a206e6577206f776e657220697320746865207a65726f206160448201527f646472657373000000000000000000000000000000000000000000000000000060648201526084015b60405180910390fd5b6103ff81610483565b50565b60005473ffffffffffffffffffffffffffffffffffffffff163314610151576040517f08c379a000000000000000000000000000000000000000000000000000000000815260206004820181905260248201527f4f776e61626c653a2063616c6c6572206973206e6f7420746865206f776e657260448201526064016103ed565b6000805473ffffffffffffffffffffffffffffffffffffffff8381167fffffffffffffffffffffffff0000000000000000000000000000000000000000831681178455604051919092169283917f8be0079c531659141344cd1fd0a4f28419497f9722a3daafe3b4186f6b6457e09190a35050565b6000763d602d80600a3d3981f3363d3d373d3d3d363d730000008260601b60e81c176000526e5af43d82803e903d91602b57fd5bf38260781b17602052603760096000f0905073ffffffffffffffffffffffffffffffffffffffff81166105bb576040517f08c379a000000000000000000000000000000000000000000000000000000000815260206004820152601660248201527f455243313136373a20637265617465206661696c65640000000000000000000060448201526064016103ed565b919050565b7f4e487b7100000000000000000000000000000000000000000000000000000000600052604160045260246000fd5b803573ffffffffffffffffffffffffffffffffffffffff811681146105bb57600080fd5b6000806040838503121561062657600080fd5b823567ffffffffffffffff8082111561063e57600080fd5b818501915085601f83011261065257600080fd5b8135602082821115610666576106666105c0565b8160051b6040517fffffffffffffffffffffffffffffffffffffffffffffffffffffffffffffffe0603f830116810181811086821117156106a9576106a96105c0565b6040529283528183019350848101820192898411156106c757600080fd5b948201945b838610156106ec576106dd866105ef565b855294820194938201936106cc565b9997909101359750505050505050565b60006020828403121561070e57600080fd5b610717826105ef565b9392505050565b6000806040838503121561073157600080fd5b61073a836105ef565b946020939093013593505050565b604080825283519082018190526000906020906060840190828701845b8281101561079757815173ffffffffffffffffffffffffffffffffffffffff1684529284019290840190600101610765565b50505092019290925292915050565b7f4e487b7100000000000000000000000000000000000000000000000000000000600052603260045260246000fd5b60007fffffffffffffffffffffffffffffffffffffffffffffffffffffffffffffffff820361082d577f4e487b7100000000000000000000000000000000000000000000000000000000600052601160045260246000fd5b506001019056fea26469706673582212207c2d4265b5409f35e64d213cc7ba0f28caebdd6919cf326041dc588023edc4e564736f6c63430008110033",
    "linkReferences": {}
  },
  "methodIdentifiers": {
    "createMultiSigWallet(address[],uint256)": "989c59c8",
    "multiSigWallet()": "4b8feb4f",
    "multiSigWalletsOf(address,uint256)": "aba38e86",
    "owner()": "8da5cb5b",
    "renounceOwnership()": "715018a6",
    "setMultiSigWalletAddress(address)": "a1eff925",
    "transferOwnership(address)": "f2fde38b"
  },
  "id": 46
}