{
  "abi": [
    {
      "anonymous": false,
      "inputs": [
        {
          "indexed": true,
          "internalType": "address",
          "name": "owner",
          "type": "address"
        },
        {
          "indexed": true,
          "internalType": "uint256",
          "name": "txIndex",
          "type": "uint256"
        }
      ],
      "name": "ConfirmTransaction",
      "type": "event"
    },
    {
      "anonymous": false,
      "inputs": [
        {
          "indexed": true,
          "internalType": "address",
          "name": "sender",
          "type": "address"
        },
        {
          "indexed": false,
          "internalType": "uint256",
          "name": "amount",
          "type": "uint256"
        },
        {
          "indexed": false,
          "internalType": "uint256",
          "name": "balance",
          "type": "uint256"
        }
      ],
      "name": "Deposit",
      "type": "event"
    },
    {
      "anonymous": false,
      "inputs": [
        {
          "indexed": true,
          "internalType": "address",
          "name": "owner",
          "type": "address"
        },
        {
          "indexed": true,
          "internalType": "uint256",
          "name": "txIndex",
          "type": "uint256"
        }
      ],
      "name": "ExecuteTransaction",
      "type": "event"
    },
    {
      "anonymous": false,
      "inputs": [
        {
          "indexed": false,
          "internalType": "uint8",
          "name": "version",
          "type": "uint8"
        }
      ],
      "name": "Initialized",
      "type": "event"
    },
    {
      "anonymous": false,
      "inputs": [
        {
          "indexed": true,
          "internalType": "address",
          "name": "owner",
          "type": "address"
        },
        {
          "indexed": true,
          "internalType": "uint256",
          "name": "txIndex",
          "type": "uint256"
        }
      ],
      "name": "RevokeConfirmation",
      "type": "event"
    },
    {
      "anonymous": false,
      "inputs": [
        {
          "indexed": true,
          "internalType": "address",
          "name": "owner",
          "type": "address"
        },
        {
          "indexed": true,
          "internalType": "uint256",
          "name": "txIndex",
          "type": "uint256"
        },
        {
          "indexed": true,
          "internalType": "address",
          "name": "to",
          "type": "address"
        },
        {
          "indexed": false,
          "internalType": "uint256",
          "name": "value",
          "type": "uint256"
        },
        {
          "indexed": false,
          "internalType": "bytes",
          "name": "data",
          "type": "bytes"
        }
      ],
      "name": "SubmitTransaction",
      "type": "event"
    },
    {
      "inputs": [
        {
          "internalType": "uint256",
          "name": "_txIndex",
          "type": "uint256"
        }
      ],
      "name": "confirmTransaction",
      "outputs": [],
      "stateMutability": "nonpayable",
      "type": "function"
    },
    {
      "inputs": [
        {
          "internalType": "uint256",
          "name": "_txIndex",
          "type": "uint256"
        }
      ],
      "name": "executeTransaction",
      "outputs": [],
      "stateMutability": "nonpayable",
      "type": "function"
    },
    {
      "inputs": [],
      "name": "getOwners",
      "outputs": [
        {
          "internalType": "address[]",
          "name": "",
          "type": "address[]"
        }
      ],
      "stateMutability": "view",
      "type": "function"
    },
    {
      "inputs": [
        {
          "internalType": "uint256",
          "name": "_txIndex",
          "type": "uint256"
        }
      ],
      "name": "getTransaction",
      "outputs": [
        {
          "internalType": "address",
          "name": "to",
          "type": "address"
        },
        {
          "internalType": "uint256",
          "name": "value",
          "type": "uint256"
        },
        {
          "internalType": "bytes",
          "name": "data",
          "type": "bytes"
        },
        {
          "internalType": "bool",
          "name": "executed",
          "type": "bool"
        },
        {
          "internalType": "uint256",
          "name": "numConfirmations",
          "type": "uint256"
        }
      ],
      "stateMutability": "view",
      "type": "function"
    },
    {
      "inputs": [],
      "name": "getTransactionCount",
      "outputs": [
        {
          "internalType": "uint256",
          "name": "",
          "type": "uint256"
        }
      ],
      "stateMutability": "view",
      "type": "function"
    },
    {
      "inputs": [
        {
          "internalType": "address[]",
          "name": "_owners",
          "type": "address[]"
        },
        {
          "internalType": "uint256",
          "name": "_numConfirmationsRequired",
          "type": "uint256"
        }
      ],
      "name": "initialize",
      "outputs": [],
      "stateMutability": "nonpayable",
      "type": "function"
    },
    {
      "inputs": [
        {
          "internalType": "uint256",
          "name": "",
          "type": "uint256"
        },
        {
          "internalType": "address",
          "name": "",
          "type": "address"
        }
      ],
      "name": "isConfirmed",
      "outputs": [
        {
          "internalType": "bool",
          "name": "",
          "type": "bool"
        }
      ],
      "stateMutability": "view",
      "type": "function"
    },
    {
      "inputs": [
        {
          "internalType": "address",
          "name": "",
          "type": "address"
        }
      ],
      "name": "isOwner",
      "outputs": [
        {
          "internalType": "bool",
          "name": "",
          "type": "bool"
        }
      ],
      "stateMutability": "view",
      "type": "function"
    },
    {
      "inputs": [],
      "name": "numConfirmationsRequired",
      "outputs": [
        {
          "internalType": "uint256",
          "name": "",
          "type": "uint256"
        }
      ],
      "stateMutability": "view",
      "type": "function"
    },
    {
      "inputs": [
        {
          "internalType": "uint256",
          "name": "",
          "type": "uint256"
        }
      ],
      "name": "owners",
      "outputs": [
        {
          "internalType": "address",
          "name": "",
          "type": "address"
        }
      ],
      "stateMutability": "view",
      "type": "function"
    },
    {
      "inputs": [
        {
          "internalType": "uint256",
          "name": "_txIndex",
          "type": "uint256"
        }
      ],
      "name": "revokeConfirmation",
      "outputs": [],
      "stateMutability": "nonpayable",
      "type": "function"
    },
    {
      "inputs": [
        {
          "internalType": "address",
          "name": "_to",
          "type": "address"
        },
        {
          "internalType": "uint256",
          "name": "_value",
          "type": "uint256"
        },
        {
          "internalType": "bytes",
          "name": "_data",
          "type": "bytes"
        }
      ],
      "name": "submitTransaction",
      "outputs": [],
      "stateMutability": "nonpayable",
      "type": "function"
    },
    {
      "inputs": [
        {
          "internalType": "uint256",
          "name": "",
          "type": "uint256"
        }
      ],
      "name": "transactions",
      "outputs": [
        {
          "internalType": "address",
          "name": "to",
          "type": "address"
        },
        {
          "internalType": "uint256",
          "name": "value",
          "type": "uint256"
        },
        {
          "internalType": "bytes",
          "name": "data",
          "type": "bytes"
        },
        {
          "internalType": "bool",
          "name": "executed",
          "type": "bool"
        },
        {
          "internalType": "uint256",
          "name": "numConfirmations",
          "type": "uint256"
        }
      ],
      "stateMutability": "view",
      "type": "function"
    },
    {
      "stateMutability": "payable",
      "type": "receive"
    }
  ],
  "bytecode": {
    "object": "0x608060405234801561001057600080fd5b50611c18806100206000396000f3fe6080604052600436106100d65760003560e01c806380f59a651161007f578063c01a8c8411610059578063c01a8c84146102b5578063c6427474146102d5578063d0549b85146102f5578063ee22610b1461030b57600080fd5b806380f59a65146102385780639ace38c214610273578063a0e67e2b1461029357600080fd5b80632f54bf6e116100b05780632f54bf6e146101a757806333ea3dc8146101e757806360b5bb3f1461021857600080fd5b8063025e7c271461011c57806320ea8d86146101665780632e7700f01461018857600080fd5b36610117576040805134815247602082015233917f90890809c654f11d6e72a28fa60149770a0d11ec6c92319d6ceb2bb0a4ea1a15910160405180910390a2005b600080fd5b34801561012857600080fd5b5061013c61013736600461151b565b61032b565b60405173ffffffffffffffffffffffffffffffffffffffff90911681526020015b60405180910390f35b34801561017257600080fd5b5061018661018136600461151b565b610362565b005b34801561019457600080fd5b506005545b60405190815260200161015d565b3480156101b357600080fd5b506101d76101c236600461155d565b60026020526000908152604090205460ff1681565b604051901515815260200161015d565b3480156101f357600080fd5b5061020761020236600461151b565b61060c565b60405161015d9594939291906115e3565b34801561022457600080fd5b506101866102333660046116aa565b610714565b34801561024457600080fd5b506101d761025336600461175d565b600460209081526000928352604080842090915290825290205460ff1681565b34801561027f57600080fd5b5061020761028e36600461151b565b610bb4565b34801561029f57600080fd5b506102a8610c9a565b60405161015d9190611789565b3480156102c157600080fd5b506101866102d036600461151b565b610d09565b3480156102e157600080fd5b506101866102f03660046117e3565b610fb6565b34801561030157600080fd5b5061019960035481565b34801561031757600080fd5b5061018661032636600461151b565b6111cb565b6001818154811061033b57600080fd5b60009182526020909120015473ffffffffffffffffffffffffffffffffffffffff16905081565b3360009081526002602052604090205460ff166103e0576040517f08c379a000000000000000000000000000000000000000000000000000000000815260206004820152600960248201527f6e6f74206f776e6572000000000000000000000000000000000000000000000060448201526064015b60405180910390fd5b6005548190811061044d576040517f08c379a000000000000000000000000000000000000000000000000000000000815260206004820152601160248201527f747820646f6573206e6f7420657869737400000000000000000000000000000060448201526064016103d7565b8160058181548110610461576104616118b0565b600091825260209091206003600590920201015460ff16156104df576040517f08c379a000000000000000000000000000000000000000000000000000000000815260206004820152601360248201527f747820616c72656164792065786563757465640000000000000000000000000060448201526064016103d7565b6000600584815481106104f4576104f46118b0565b600091825260208083208784526004825260408085203386529092529220546005909102909101915060ff16610586576040517f08c379a000000000000000000000000000000000000000000000000000000000815260206004820152601060248201527f7478206e6f7420636f6e6669726d65640000000000000000000000000000000060448201526064016103d7565b600181600401600082825461059b919061190e565b9091555050600084815260046020908152604080832033808552925280832080547fffffffffffffffffffffffffffffffffffffffffffffffffffffffffffffff001690555186927ff0dca620e2e81f7841d07bcc105e1704fb01475b278a9d4c236e1c62945edd5591a350505050565b6000806060600080600060058781548110610629576106296118b0565b60009182526020909120600590910201805460018201546003830154600484015460028501805495965073ffffffffffffffffffffffffffffffffffffffff9094169492939260ff90921691839061068090611927565b80601f01602080910402602001604051908101604052809291908181526020018280546106ac90611927565b80156106f95780601f106106ce576101008083540402835291602001916106f9565b820191906000526020600020905b8154815290600101906020018083116106dc57829003601f168201915b50505050509250955095509550955095505091939590929450565b600054610100900460ff16158080156107345750600054600160ff909116105b8061074e5750303b15801561074e575060005460ff166001145b6107da576040517f08c379a000000000000000000000000000000000000000000000000000000000815260206004820152602e60248201527f496e697469616c697a61626c653a20636f6e747261637420697320616c72656160448201527f647920696e697469616c697a656400000000000000000000000000000000000060648201526084016103d7565b600080547fffffffffffffffffffffffffffffffffffffffffffffffffffffffffffffff00166001179055801561083857600080547fffffffffffffffffffffffffffffffffffffffffffffffffffffffffffff00ff166101001790555b60008351116108a3576040517f08c379a000000000000000000000000000000000000000000000000000000000815260206004820152600f60248201527f6f776e657273207265717569726564000000000000000000000000000000000060448201526064016103d7565b6000821180156108b4575082518211155b610940576040517f08c379a000000000000000000000000000000000000000000000000000000000815260206004820152602860248201527f696e76616c6964206e756d626572206f6620726571756972656420636f6e666960448201527f726d6174696f6e7300000000000000000000000000000000000000000000000060648201526084016103d7565b60005b8351811015610b46576000848281518110610960576109606118b0565b60200260200101519050600073ffffffffffffffffffffffffffffffffffffffff168173ffffffffffffffffffffffffffffffffffffffff1603610a00576040517f08c379a000000000000000000000000000000000000000000000000000000000815260206004820152600d60248201527f696e76616c6964206f776e65720000000000000000000000000000000000000060448201526064016103d7565b73ffffffffffffffffffffffffffffffffffffffff811660009081526002602052604090205460ff1615610a90576040517f08c379a000000000000000000000000000000000000000000000000000000000815260206004820152601060248201527f6f776e6572206e6f7420756e697175650000000000000000000000000000000060448201526064016103d7565b73ffffffffffffffffffffffffffffffffffffffff16600081815260026020526040812080547fffffffffffffffffffffffffffffffffffffffffffffffffffffffffffffff001660019081179091558054808201825591527fb10e2d527612073b26eecdfd717e6a320cf44b4afac2b0732d9fcbe2b7fa0cf60180547fffffffffffffffffffffffff000000000000000000000000000000000000000016909117905580610b3e8161197a565b915050610943565b5060038290558015610baf57600080547fffffffffffffffffffffffffffffffffffffffffffffffffffffffffffff00ff169055604051600181527f7f26b83ff96e1f2b6a682f133852f6798a09c465da95921460cefb38474024989060200160405180910390a15b505050565b60058181548110610bc457600080fd5b600091825260209091206005909102018054600182015460028301805473ffffffffffffffffffffffffffffffffffffffff9093169450909291610c0790611927565b80601f0160208091040260200160405190810160405280929190818152602001828054610c3390611927565b8015610c805780601f10610c5557610100808354040283529160200191610c80565b820191906000526020600020905b815481529060010190602001808311610c6357829003601f168201915b505050506003830154600490930154919260ff1691905085565b60606001805480602002602001604051908101604052809291908181526020018280548015610cff57602002820191906000526020600020905b815473ffffffffffffffffffffffffffffffffffffffff168152600190910190602001808311610cd4575b5050505050905090565b3360009081526002602052604090205460ff16610d82576040517f08c379a000000000000000000000000000000000000000000000000000000000815260206004820152600960248201527f6e6f74206f776e6572000000000000000000000000000000000000000000000060448201526064016103d7565b60055481908110610def576040517f08c379a000000000000000000000000000000000000000000000000000000000815260206004820152601160248201527f747820646f6573206e6f7420657869737400000000000000000000000000000060448201526064016103d7565b8160058181548110610e0357610e036118b0565b600091825260209091206003600590920201015460ff1615610e81576040517f08c379a000000000000000000000000000000000000000000000000000000000815260206004820152601360248201527f747820616c72656164792065786563757465640000000000000000000000000060448201526064016103d7565b6000838152600460209081526040808320338452909152902054839060ff1615610f07576040517f08c379a000000000000000000000000000000000000000000000000000000000815260206004820152601460248201527f747820616c726561647920636f6e6669726d656400000000000000000000000060448201526064016103d7565b600060058581548110610f1c57610f1c6118b0565b906000526020600020906005020190506001816004016000828254610f4191906119b2565b9091555050600085815260046020908152604080832033808552925280832080547fffffffffffffffffffffffffffffffffffffffffffffffffffffffffffffff001660011790555187927f5cbe105e36805f7820e291f799d5794ff948af2a5f664e580382defb6339004191a35050505050565b3360009081526002602052604090205460ff1661102f576040517f08c379a000000000000000000000000000000000000000000000000000000000815260206004820152600960248201527f6e6f74206f776e6572000000000000000000000000000000000000000000000060448201526064016103d7565b600580546040805160a08101825273ffffffffffffffffffffffffffffffffffffffff8781168252602082018781529282018681526000606084018190526080840181905260018601875586905282517f036b6384b5eca791c62761152d0c79bb0604c104a5fb6f4eb0703f3154bb3db096860296870180547fffffffffffffffffffffffff0000000000000000000000000000000000000000169190931617825592517f036b6384b5eca791c62761152d0c79bb0604c104a5fb6f4eb0703f3154bb3db18601559151929390927f036b6384b5eca791c62761152d0c79bb0604c104a5fb6f4eb0703f3154bb3db29091019061112c9082611a13565b5060608201516003820180547fffffffffffffffffffffffffffffffffffffffffffffffffffffffffffffff001691151591909117905560809091015160049091015560405173ffffffffffffffffffffffffffffffffffffffff851690829033907fd5a05bf70715ad82a09a756320284a1b54c9ff74cd0f8cce6219e79b563fe59d906111bd9088908890611b2d565b60405180910390a450505050565b3360009081526002602052604090205460ff16611244576040517f08c379a000000000000000000000000000000000000000000000000000000000815260206004820152600960248201527f6e6f74206f776e6572000000000000000000000000000000000000000000000060448201526064016103d7565b600554819081106112b1576040517f08c379a000000000000000000000000000000000000000000000000000000000815260206004820152601160248201527f747820646f6573206e6f7420657869737400000000000000000000000000000060448201526064016103d7565b81600581815481106112c5576112c56118b0565b600091825260209091206003600590920201015460ff1615611343576040517f08c379a000000000000000000000000000000000000000000000000000000000815260206004820152601360248201527f747820616c72656164792065786563757465640000000000000000000000000060448201526064016103d7565b600060058481548110611358576113586118b0565b90600052602060002090600502019050600354816004015410156113d8576040517f08c379a000000000000000000000000000000000000000000000000000000000815260206004820152601160248201527f63616e6e6f74206578656375746520747800000000000000000000000000000060448201526064016103d7565b6003810180547fffffffffffffffffffffffffffffffffffffffffffffffffffffffffffffff0016600190811790915581549082015460405160009273ffffffffffffffffffffffffffffffffffffffff16919061143a906002860190611b4e565b60006040518083038185875af1925050503d8060008114611477576040519150601f19603f3d011682016040523d82523d6000602084013e61147c565b606091505b50509050806114e7576040517f08c379a000000000000000000000000000000000000000000000000000000000815260206004820152600960248201527f7478206661696c6564000000000000000000000000000000000000000000000060448201526064016103d7565b604051859033907f5445f318f4f5fcfb66592e68e0cc5822aa15664039bd5f0ffde24c5a8142b1ac90600090a35050505050565b60006020828403121561152d57600080fd5b5035919050565b803573ffffffffffffffffffffffffffffffffffffffff8116811461155857600080fd5b919050565b60006020828403121561156f57600080fd5b61157882611534565b9392505050565b6000815180845260005b818110156115a557602081850181015186830182015201611589565b5060006020828601015260207fffffffffffffffffffffffffffffffffffffffffffffffffffffffffffffffe0601f83011685010191505092915050565b73ffffffffffffffffffffffffffffffffffffffff8616815284602082015260a06040820152600061161860a083018661157f565b931515606083015250608001529392505050565b7f4e487b7100000000000000000000000000000000000000000000000000000000600052604160045260246000fd5b604051601f82017fffffffffffffffffffffffffffffffffffffffffffffffffffffffffffffffe016810167ffffffffffffffff811182821017156116a2576116a261162c565b604052919050565b600080604083850312156116bd57600080fd5b823567ffffffffffffffff808211156116d557600080fd5b818501915085601f8301126116e957600080fd5b81356020828211156116fd576116fd61162c565b8160051b925061170e81840161165b565b828152928401810192818101908985111561172857600080fd5b948201945b8486101561174d5761173e86611534565b8252948201949082019061172d565b9997909101359750505050505050565b6000806040838503121561177057600080fd5b8235915061178060208401611534565b90509250929050565b6020808252825182820181905260009190848201906040850190845b818110156117d757835173ffffffffffffffffffffffffffffffffffffffff16835292840192918401916001016117a5565b50909695505050505050565b6000806000606084860312156117f857600080fd5b61180184611534565b92506020808501359250604085013567ffffffffffffffff8082111561182657600080fd5b818701915087601f83011261183a57600080fd5b81358181111561184c5761184c61162c565b61187c847fffffffffffffffffffffffffffffffffffffffffffffffffffffffffffffffe0601f8401160161165b565b9150808252888482850101111561189257600080fd5b80848401858401376000848284010152508093505050509250925092565b7f4e487b7100000000000000000000000000000000000000000000000000000000600052603260045260246000fd5b7f4e487b7100000000000000000000000000000000000000000000000000000000600052601160045260246000fd5b81810381811115611921576119216118df565b92915050565b600181811c9082168061193b57607f821691505b602082108103611974577f4e487b7100000000000000000000000000000000000000000000000000000000600052602260045260246000fd5b50919050565b60007fffffffffffffffffffffffffffffffffffffffffffffffffffffffffffffffff82036119ab576119ab6118df565b5060010190565b80820180821115611921576119216118df565b601f821115610baf57600081815260208120601f850160051c810160208610156119ec5750805b601f850160051c820191505b81811015611a0b578281556001016119f8565b505050505050565b815167ffffffffffffffff811115611a2d57611a2d61162c565b611a4181611a3b8454611927565b846119c5565b602080601f831160018114611a945760008415611a5e5750858301515b7fffffffffffffffffffffffffffffffffffffffffffffffffffffffffffffffff600386901b1c1916600185901b178555611a0b565b6000858152602081207fffffffffffffffffffffffffffffffffffffffffffffffffffffffffffffffe08616915b82811015611ae157888601518255948401946001909101908401611ac2565b5085821015611b1d57878501517fffffffffffffffffffffffffffffffffffffffffffffffffffffffffffffffff600388901b60f8161c191681555b5050505050600190811b01905550565b828152604060208201526000611b46604083018461157f565b949350505050565b6000808354611b5c81611927565b60018281168015611b745760018114611ba757611bd6565b7fffffffffffffffffffffffffffffffffffffffffffffffffffffffffffffff0084168752821515830287019450611bd6565b8760005260208060002060005b85811015611bcd5781548a820152908401908201611bb4565b50505082870194505b5092969550505050505056fea26469706673582212200d26a390a95f1917ad709806912ed310a5a8743264c7145da44d0566ceaa486364736f6c63430008110033",
    "linkReferences": {}
  },
  "methodIdentifiers": {
    "confirmTransaction(uint256)": "c01a8c84",
    "executeTransaction(uint256)": "ee22610b",
    "getOwners()": "a0e67e2b",
    "getTransaction(uint256)": "33ea3dc8",
    "getTransactionCount()": "2e7700f0",
    "initialize(address[],uint256)": "60b5bb3f",
    "isConfirmed(uint256,address)": "80f59a65",
    "isOwner(address)": "2f54bf6e",
    "numConfirmationsRequired()": "d0549b85",
    "owners(uint256)": "025e7c27",
    "revokeConfirmation(uint256)": "20ea8d86",
    "submitTransaction(address,uint256,bytes)": "c6427474",
    "transactions(uint256)": "9ace38c2"
  },
  "id": 46
}