{
  "abi": [
    {
      "anonymous": false,
      "inputs": [
        {
          "indexed": true,
          "internalType": "address",
          "name": "owner",
          "type": "address"
        },
        {
          "indexed": true,
          "internalType": "uint256",
          "name": "txIndex",
          "type": "uint256"
        }
      ],
      "name": "ConfirmTransaction",
      "type": "event"
    },
    {
      "anonymous": false,
      "inputs": [
        {
          "indexed": true,
          "internalType": "address",
          "name": "sender",
          "type": "address"
        },
        {
          "indexed": false,
          "internalType": "uint256",
          "name": "amount",
          "type": "uint256"
        },
        {
          "indexed": false,
          "internalType": "uint256",
          "name": "balance",
          "type": "uint256"
        }
      ],
      "name": "Deposit",
      "type": "event"
    },
    {
      "anonymous": false,
      "inputs": [
        {
          "indexed": true,
          "internalType": "address",
          "name": "owner",
          "type": "address"
        },
        {
          "indexed": true,
          "internalType": "uint256",
          "name": "txIndex",
          "type": "uint256"
        }
      ],
      "name": "ExecuteTransaction",
      "type": "event"
    },
    {
      "anonymous": false,
      "inputs": [
        {
          "indexed": false,
          "internalType": "uint8",
          "name": "version",
          "type": "uint8"
        }
      ],
      "name": "Initialized",
      "type": "event"
    },
    {
      "anonymous": false,
      "inputs": [
        {
          "indexed": true,
          "internalType": "address",
          "name": "previousOwner",
          "type": "address"
        },
        {
          "indexed": true,
          "internalType": "address",
          "name": "newOwner",
          "type": "address"
        }
      ],
      "name": "OwnershipTransferred",
      "type": "event"
    },
    {
      "anonymous": false,
      "inputs": [
        {
          "indexed": true,
          "internalType": "address",
          "name": "owner",
          "type": "address"
        },
        {
          "indexed": true,
          "internalType": "uint256",
          "name": "txIndex",
          "type": "uint256"
        }
      ],
      "name": "RevokeConfirmation",
      "type": "event"
    },
    {
      "anonymous": false,
      "inputs": [
        {
          "indexed": true,
          "internalType": "address",
          "name": "owner",
          "type": "address"
        },
        {
          "indexed": true,
          "internalType": "uint256",
          "name": "txIndex",
          "type": "uint256"
        },
        {
          "indexed": true,
          "internalType": "address",
          "name": "to",
          "type": "address"
        },
        {
          "indexed": false,
          "internalType": "uint256",
          "name": "value",
          "type": "uint256"
        },
        {
          "indexed": false,
          "internalType": "bytes",
          "name": "data",
          "type": "bytes"
        }
      ],
      "name": "SubmitTransaction",
      "type": "event"
    },
    {
      "inputs": [
        {
          "internalType": "uint256",
          "name": "_txIndex",
          "type": "uint256"
        }
      ],
      "name": "confirmTransaction",
      "outputs": [],
      "stateMutability": "nonpayable",
      "type": "function"
    },
    {
      "inputs": [
        {
          "internalType": "uint256",
          "name": "_txIndex",
          "type": "uint256"
        }
      ],
      "name": "executeTransaction",
      "outputs": [],
      "stateMutability": "nonpayable",
      "type": "function"
    },
    {
      "inputs": [],
      "name": "getOwners",
      "outputs": [
        {
          "internalType": "address[]",
          "name": "",
          "type": "address[]"
        }
      ],
      "stateMutability": "view",
      "type": "function"
    },
    {
      "inputs": [
        {
          "internalType": "uint256",
          "name": "_txIndex",
          "type": "uint256"
        }
      ],
      "name": "getTransaction",
      "outputs": [
        {
          "internalType": "address",
          "name": "to",
          "type": "address"
        },
        {
          "internalType": "uint256",
          "name": "value",
          "type": "uint256"
        },
        {
          "internalType": "bytes",
          "name": "data",
          "type": "bytes"
        },
        {
          "internalType": "bool",
          "name": "executed",
          "type": "bool"
        },
        {
          "internalType": "uint256",
          "name": "numConfirmations",
          "type": "uint256"
        }
      ],
      "stateMutability": "view",
      "type": "function"
    },
    {
      "inputs": [],
      "name": "getTransactionCount",
      "outputs": [
        {
          "internalType": "uint256",
          "name": "",
          "type": "uint256"
        }
      ],
      "stateMutability": "view",
      "type": "function"
    },
    {
      "inputs": [
        {
          "internalType": "address[]",
          "name": "_owners",
          "type": "address[]"
        },
        {
          "internalType": "uint256",
          "name": "_numConfirmationsRequired",
          "type": "uint256"
        }
      ],
      "name": "initialize",
      "outputs": [],
      "stateMutability": "nonpayable",
      "type": "function"
    },
    {
      "inputs": [
        {
          "internalType": "uint256",
          "name": "",
          "type": "uint256"
        },
        {
          "internalType": "address",
          "name": "",
          "type": "address"
        }
      ],
      "name": "isConfirmed",
      "outputs": [
        {
          "internalType": "bool",
          "name": "",
          "type": "bool"
        }
      ],
      "stateMutability": "view",
      "type": "function"
    },
    {
      "inputs": [
        {
          "internalType": "address",
          "name": "",
          "type": "address"
        }
      ],
      "name": "isOwner",
      "outputs": [
        {
          "internalType": "bool",
          "name": "",
          "type": "bool"
        }
      ],
      "stateMutability": "view",
      "type": "function"
    },
    {
      "inputs": [],
      "name": "numConfirmationsRequired",
      "outputs": [
        {
          "internalType": "uint256",
          "name": "",
          "type": "uint256"
        }
      ],
      "stateMutability": "view",
      "type": "function"
    },
    {
      "inputs": [],
      "name": "owner",
      "outputs": [
        {
          "internalType": "address",
          "name": "",
          "type": "address"
        }
      ],
      "stateMutability": "view",
      "type": "function"
    },
    {
      "inputs": [
        {
          "internalType": "uint256",
          "name": "",
          "type": "uint256"
        }
      ],
      "name": "owners",
      "outputs": [
        {
          "internalType": "address",
          "name": "",
          "type": "address"
        }
      ],
      "stateMutability": "view",
      "type": "function"
    },
    {
      "inputs": [],
      "name": "renounceOwnership",
      "outputs": [],
      "stateMutability": "nonpayable",
      "type": "function"
    },
    {
      "inputs": [
        {
          "internalType": "uint256",
          "name": "_txIndex",
          "type": "uint256"
        }
      ],
      "name": "revokeConfirmation",
      "outputs": [],
      "stateMutability": "nonpayable",
      "type": "function"
    },
    {
      "inputs": [
        {
          "internalType": "address",
          "name": "_to",
          "type": "address"
        },
        {
          "internalType": "uint256",
          "name": "_value",
          "type": "uint256"
        },
        {
          "internalType": "bytes",
          "name": "_data",
          "type": "bytes"
        }
      ],
      "name": "submitTransaction",
      "outputs": [],
      "stateMutability": "nonpayable",
      "type": "function"
    },
    {
      "inputs": [
        {
          "internalType": "uint256",
          "name": "",
          "type": "uint256"
        }
      ],
      "name": "transactions",
      "outputs": [
        {
          "internalType": "address",
          "name": "to",
          "type": "address"
        },
        {
          "internalType": "uint256",
          "name": "value",
          "type": "uint256"
        },
        {
          "internalType": "bytes",
          "name": "data",
          "type": "bytes"
        },
        {
          "internalType": "bool",
          "name": "executed",
          "type": "bool"
        },
        {
          "internalType": "uint256",
          "name": "numConfirmations",
          "type": "uint256"
        }
      ],
      "stateMutability": "view",
      "type": "function"
    },
    {
      "inputs": [
        {
          "internalType": "address",
          "name": "newOwner",
          "type": "address"
        }
      ],
      "name": "transferOwnership",
      "outputs": [],
      "stateMutability": "nonpayable",
      "type": "function"
    },
    {
      "stateMutability": "payable",
      "type": "receive"
    }
  ],
  "bytecode": {
    "object": "0x608060405234801561001057600080fd5b5061001a3361001f565b61007a565b600080546001600160a01b038381166201000081810262010000600160b01b0319851617855560405193049190911692909183917f8be0079c531659141344cd1fd0a4f28419497f9722a3daafe3b4186f6b6457e091a35050565b611ea2806100896000396000f3fe6080604052600436106100f75760003560e01c80638da5cb5b1161008a578063c642747411610059578063c64274741461033c578063d0549b851461035c578063ee22610b14610372578063f2fde38b1461039257600080fd5b80638da5cb5b146102a95780639ace38c2146102da578063a0e67e2b146102fa578063c01a8c841461031c57600080fd5b806333ea3dc8116100c657806333ea3dc81461020857806360b5bb3f14610239578063715018a61461025957806380f59a651461026e57600080fd5b8063025e7c271461013d57806320ea8d86146101875780632e7700f0146101a95780632f54bf6e146101c857600080fd5b36610138576040805134815247602082015233917f90890809c654f11d6e72a28fa60149770a0d11ec6c92319d6ceb2bb0a4ea1a15910160405180910390a2005b600080fd5b34801561014957600080fd5b5061015d6101583660046117a5565b6103b2565b60405173ffffffffffffffffffffffffffffffffffffffff90911681526020015b60405180910390f35b34801561019357600080fd5b506101a76101a23660046117a5565b6103e9565b005b3480156101b557600080fd5b506003545b60405190815260200161017e565b3480156101d457600080fd5b506101f86101e33660046117e7565b60046020526000908152604090205460ff1681565b604051901515815260200161017e565b34801561021457600080fd5b506102286102233660046117a5565b610694565b60405161017e95949392919061186d565b34801561024557600080fd5b506101a7610254366004611934565b61079c565b34801561026557600080fd5b506101a7610cb1565b34801561027a57600080fd5b506101f86102893660046119e7565b600560209081526000928352604080842090915290825290205460ff1681565b3480156102b557600080fd5b5060005462010000900473ffffffffffffffffffffffffffffffffffffffff1661015d565b3480156102e657600080fd5b506102286102f53660046117a5565b610cc5565b34801561030657600080fd5b5061030f610dab565b60405161017e9190611a13565b34801561032857600080fd5b506101a76103373660046117a5565b610e1a565b34801561034857600080fd5b506101a7610357366004611a6d565b6110c8565b34801561036857600080fd5b506101ba60015481565b34801561037e57600080fd5b506101a761038d3660046117a5565b611271565b34801561039e57600080fd5b506101a76103ad3660046117e7565b6115e8565b600281815481106103c257600080fd5b60009182526020909120015473ffffffffffffffffffffffffffffffffffffffff16905081565b6103f161169f565b60035481908110610489576040517f08c379a000000000000000000000000000000000000000000000000000000000815260206004820152602a60248201527f4d756c746953696757616c6c65743a205472616e73616374696f6e20646f657360448201527f206e6f742065786973740000000000000000000000000000000000000000000060648201526084015b60405180910390fd5b816003818154811061049d5761049d611b3a565b600091825260209091206003600590920201015460ff1615610541576040517f08c379a000000000000000000000000000000000000000000000000000000000815260206004820152602c60248201527f4d756c746953696757616c6c65743a205472616e73616374696f6e20616c726560448201527f61647920657865637574656400000000000000000000000000000000000000006064820152608401610480565b60006003848154811061055657610556611b3a565b600091825260208083208784526005808352604080862033875290935291909320549102909101915060ff1661060e576040517f08c379a000000000000000000000000000000000000000000000000000000000815260206004820152602960248201527f4d756c746953696757616c6c65743a205472616e73616374696f6e206e6f742060448201527f636f6e6669726d656400000000000000000000000000000000000000000000006064820152608401610480565b60018160040160008282546106239190611b98565b9091555050600084815260056020908152604080832033808552925280832080547fffffffffffffffffffffffffffffffffffffffffffffffffffffffffffffff001690555186927ff0dca620e2e81f7841d07bcc105e1704fb01475b278a9d4c236e1c62945edd5591a350505050565b60008060606000806000600387815481106106b1576106b1611b3a565b60009182526020909120600590910201805460018201546003830154600484015460028501805495965073ffffffffffffffffffffffffffffffffffffffff9094169492939260ff90921691839061070890611bb1565b80601f016020809104026020016040519081016040528092919081815260200182805461073490611bb1565b80156107815780601f1061075657610100808354040283529160200191610781565b820191906000526020600020905b81548152906001019060200180831161076457829003601f168201915b50505050509250955095509550955095505091939590929450565b600054610100900460ff16158080156107bc5750600054600160ff909116105b806107d65750303b1580156107d6575060005460ff166001145b610862576040517f08c379a000000000000000000000000000000000000000000000000000000000815260206004820152602e60248201527f496e697469616c697a61626c653a20636f6e747261637420697320616c72656160448201527f647920696e697469616c697a65640000000000000000000000000000000000006064820152608401610480565b600080547fffffffffffffffffffffffffffffffffffffffffffffffffffffffffffffff0016600117905580156108c057600080547fffffffffffffffffffffffffffffffffffffffffffffffffffffffffffff00ff166101001790555b6000835111610951576040517f08c379a000000000000000000000000000000000000000000000000000000000815260206004820152602960248201527f4d756c746953696757616c6c65743a204e756d626572206f66206f776e65727360448201527f20617265207a65726f00000000000000000000000000000000000000000000006064820152608401610480565b600082118015610962575082518211155b6109ee576040517f08c379a000000000000000000000000000000000000000000000000000000000815260206004820152603160248201527f4d756c746953696757616c6c65743a20526571756972656420636f6e6669726d60448201527f6174696f6e7320697320696e76616c69640000000000000000000000000000006064820152608401610480565b60005b8351811015610c43576000848281518110610a0e57610a0e611b3a565b60200260200101519050600073ffffffffffffffffffffffffffffffffffffffff168173ffffffffffffffffffffffffffffffffffffffff1603610ad4576040517f08c379a000000000000000000000000000000000000000000000000000000000815260206004820152602260248201527f4d756c746953696757616c6c65743a203078302063616e2774206265206f776e60448201527f65720000000000000000000000000000000000000000000000000000000000006064820152608401610480565b73ffffffffffffffffffffffffffffffffffffffff811660009081526004602052604090205460ff1615610b8a576040517f08c379a000000000000000000000000000000000000000000000000000000000815260206004820152602360248201527f4d756c746953696757616c6c65743a204f776e6572206973206e6f7420756e6960448201527f71756500000000000000000000000000000000000000000000000000000000006064820152608401610480565b73ffffffffffffffffffffffffffffffffffffffff16600081815260046020526040812080547fffffffffffffffffffffffffffffffffffffffffffffffffffffffffffffff001660019081179091556002805491820181559091527f405787fa12a823e0f2b7631cc41b3ba8828b3321ca811111fa75cd3aa3bb5ace0180547fffffffffffffffffffffffff000000000000000000000000000000000000000016909117905580610c3b81611c04565b9150506109f1565b5060018290558015610cac57600080547fffffffffffffffffffffffffffffffffffffffffffffffffffffffffffff00ff169055604051600181527f7f26b83ff96e1f2b6a682f133852f6798a09c465da95921460cefb38474024989060200160405180910390a15b505050565b610cb961169f565b610cc36000611727565b565b60038181548110610cd557600080fd5b600091825260209091206005909102018054600182015460028301805473ffffffffffffffffffffffffffffffffffffffff9093169450909291610d1890611bb1565b80601f0160208091040260200160405190810160405280929190818152602001828054610d4490611bb1565b8015610d915780601f10610d6657610100808354040283529160200191610d91565b820191906000526020600020905b815481529060010190602001808311610d7457829003601f168201915b505050506003830154600490930154919260ff1691905085565b60606002805480602002602001604051908101604052809291908181526020018280548015610e1057602002820191906000526020600020905b815473ffffffffffffffffffffffffffffffffffffffff168152600190910190602001808311610de5575b5050505050905090565b610e2261169f565b60035481908110610eb5576040517f08c379a000000000000000000000000000000000000000000000000000000000815260206004820152602a60248201527f4d756c746953696757616c6c65743a205472616e73616374696f6e20646f657360448201527f206e6f74206578697374000000000000000000000000000000000000000000006064820152608401610480565b8160038181548110610ec957610ec9611b3a565b600091825260209091206003600590920201015460ff1615610f6d576040517f08c379a000000000000000000000000000000000000000000000000000000000815260206004820152602c60248201527f4d756c746953696757616c6c65743a205472616e73616374696f6e20616c726560448201527f61647920657865637574656400000000000000000000000000000000000000006064820152608401610480565b6000838152600560209081526040808320338452909152902054839060ff1615611019576040517f08c379a000000000000000000000000000000000000000000000000000000000815260206004820152602d60248201527f4d756c746953696757616c6c65743a205472616e73616374696f6e20616c726560448201527f61647920636f6e6669726d6564000000000000000000000000000000000000006064820152608401610480565b60006003858154811061102e5761102e611b3a565b9060005260206000209060050201905060018160040160008282546110539190611c3c565b9091555050600085815260056020908152604080832033808552925280832080547fffffffffffffffffffffffffffffffffffffffffffffffffffffffffffffff001660011790555187927f5cbe105e36805f7820e291f799d5794ff948af2a5f664e580382defb6339004191a35050505050565b6110d061169f565b600380546040805160a08101825273ffffffffffffffffffffffffffffffffffffffff878116825260208201878152928201868152600060608401819052608084018190526001860187559590955281517fc2575a0e9e593c00f959f8c92f12db2869c3395a3b0502d05e2516446f71f85b6005860290810180547fffffffffffffffffffffffff0000000000000000000000000000000000000000169290931691909117825592517fc2575a0e9e593c00f959f8c92f12db2869c3395a3b0502d05e2516446f71f85c84015593519293909290917fc2575a0e9e593c00f959f8c92f12db2869c3395a3b0502d05e2516446f71f85d01906111d29082611c9d565b5060608201516003820180547fffffffffffffffffffffffffffffffffffffffffffffffffffffffffffffff001691151591909117905560809091015160049091015560405173ffffffffffffffffffffffffffffffffffffffff851690829033907fd5a05bf70715ad82a09a756320284a1b54c9ff74cd0f8cce6219e79b563fe59d906112639088908890611db7565b60405180910390a450505050565b61127961169f565b6003548190811061130c576040517f08c379a000000000000000000000000000000000000000000000000000000000815260206004820152602a60248201527f4d756c746953696757616c6c65743a205472616e73616374696f6e20646f657360448201527f206e6f74206578697374000000000000000000000000000000000000000000006064820152608401610480565b816003818154811061132057611320611b3a565b600091825260209091206003600590920201015460ff16156113c4576040517f08c379a000000000000000000000000000000000000000000000000000000000815260206004820152602c60248201527f4d756c746953696757616c6c65743a205472616e73616374696f6e20616c726560448201527f61647920657865637574656400000000000000000000000000000000000000006064820152608401610480565b6000600384815481106113d9576113d9611b3a565b906000526020600020906005020190506001548160040154101561147f576040517f08c379a000000000000000000000000000000000000000000000000000000000815260206004820152603c60248201527f4d756c746953696757616c6c65743a204e756d626572206f6620636f6e66697260448201527f6d6174696f6e206973206c657373207468616e207265717569726564000000006064820152608401610480565b6003810180547fffffffffffffffffffffffffffffffffffffffffffffffffffffffffffffff0016600190811790915581549082015460405160009273ffffffffffffffffffffffffffffffffffffffff1691906114e1906002860190611dd8565b60006040518083038185875af1925050503d806000811461151e576040519150601f19603f3d011682016040523d82523d6000602084013e611523565b606091505b50509050806115b4576040517f08c379a000000000000000000000000000000000000000000000000000000000815260206004820152602760248201527f4d756c746953696757616c6c65743a205472616e73616374696f6e2063616c6c60448201527f206661696c6564000000000000000000000000000000000000000000000000006064820152608401610480565b604051859033907f5445f318f4f5fcfb66592e68e0cc5822aa15664039bd5f0ffde24c5a8142b1ac90600090a35050505050565b6115f061169f565b73ffffffffffffffffffffffffffffffffffffffff8116611693576040517f08c379a000000000000000000000000000000000000000000000000000000000815260206004820152602660248201527f4f776e61626c653a206e6577206f776e657220697320746865207a65726f206160448201527f64647265737300000000000000000000000000000000000000000000000000006064820152608401610480565b61169c81611727565b50565b60005473ffffffffffffffffffffffffffffffffffffffff62010000909104163314610cc3576040517f08c379a000000000000000000000000000000000000000000000000000000000815260206004820181905260248201527f4f776e61626c653a2063616c6c6572206973206e6f7420746865206f776e65726044820152606401610480565b6000805473ffffffffffffffffffffffffffffffffffffffff838116620100008181027fffffffffffffffffffff0000000000000000000000000000000000000000ffff851617855560405193049190911692909183917f8be0079c531659141344cd1fd0a4f28419497f9722a3daafe3b4186f6b6457e091a35050565b6000602082840312156117b757600080fd5b5035919050565b803573ffffffffffffffffffffffffffffffffffffffff811681146117e257600080fd5b919050565b6000602082840312156117f957600080fd5b611802826117be565b9392505050565b6000815180845260005b8181101561182f57602081850181015186830182015201611813565b5060006020828601015260207fffffffffffffffffffffffffffffffffffffffffffffffffffffffffffffffe0601f83011685010191505092915050565b73ffffffffffffffffffffffffffffffffffffffff8616815284602082015260a0604082015260006118a260a0830186611809565b931515606083015250608001529392505050565b7f4e487b7100000000000000000000000000000000000000000000000000000000600052604160045260246000fd5b604051601f82017fffffffffffffffffffffffffffffffffffffffffffffffffffffffffffffffe016810167ffffffffffffffff8111828210171561192c5761192c6118b6565b604052919050565b6000806040838503121561194757600080fd5b823567ffffffffffffffff8082111561195f57600080fd5b818501915085601f83011261197357600080fd5b8135602082821115611987576119876118b6565b8160051b92506119988184016118e5565b82815292840181019281810190898511156119b257600080fd5b948201945b848610156119d7576119c8866117be565b825294820194908201906119b7565b9997909101359750505050505050565b600080604083850312156119fa57600080fd5b82359150611a0a602084016117be565b90509250929050565b6020808252825182820181905260009190848201906040850190845b81811015611a6157835173ffffffffffffffffffffffffffffffffffffffff1683529284019291840191600101611a2f565b50909695505050505050565b600080600060608486031215611a8257600080fd5b611a8b846117be565b92506020808501359250604085013567ffffffffffffffff80821115611ab057600080fd5b818701915087601f830112611ac457600080fd5b813581811115611ad657611ad66118b6565b611b06847fffffffffffffffffffffffffffffffffffffffffffffffffffffffffffffffe0601f840116016118e5565b91508082528884828501011115611b1c57600080fd5b80848401858401376000848284010152508093505050509250925092565b7f4e487b7100000000000000000000000000000000000000000000000000000000600052603260045260246000fd5b7f4e487b7100000000000000000000000000000000000000000000000000000000600052601160045260246000fd5b81810381811115611bab57611bab611b69565b92915050565b600181811c90821680611bc557607f821691505b602082108103611bfe577f4e487b7100000000000000000000000000000000000000000000000000000000600052602260045260246000fd5b50919050565b60007fffffffffffffffffffffffffffffffffffffffffffffffffffffffffffffffff8203611c3557611c35611b69565b5060010190565b80820180821115611bab57611bab611b69565b601f821115610cac57600081815260208120601f850160051c81016020861015611c765750805b601f850160051c820191505b81811015611c9557828155600101611c82565b505050505050565b815167ffffffffffffffff811115611cb757611cb76118b6565b611ccb81611cc58454611bb1565b84611c4f565b602080601f831160018114611d1e5760008415611ce85750858301515b7fffffffffffffffffffffffffffffffffffffffffffffffffffffffffffffffff600386901b1c1916600185901b178555611c95565b6000858152602081207fffffffffffffffffffffffffffffffffffffffffffffffffffffffffffffffe08616915b82811015611d6b57888601518255948401946001909101908401611d4c565b5085821015611da757878501517fffffffffffffffffffffffffffffffffffffffffffffffffffffffffffffffff600388901b60f8161c191681555b5050505050600190811b01905550565b828152604060208201526000611dd06040830184611809565b949350505050565b6000808354611de681611bb1565b60018281168015611dfe5760018114611e3157611e60565b7fffffffffffffffffffffffffffffffffffffffffffffffffffffffffffffff0084168752821515830287019450611e60565b8760005260208060002060005b85811015611e575781548a820152908401908201611e3e565b50505082870194505b5092969550505050505056fea26469706673582212205eeebb752ad16049f3a3a2e89eec00811fa5c977e02b656535e8bf92673dc9f764736f6c63430008110033",
    "linkReferences": {}
  },
  "methodIdentifiers": {
    "confirmTransaction(uint256)": "c01a8c84",
    "executeTransaction(uint256)": "ee22610b",
    "getOwners()": "a0e67e2b",
    "getTransaction(uint256)": "33ea3dc8",
    "getTransactionCount()": "2e7700f0",
    "initialize(address[],uint256)": "60b5bb3f",
    "isConfirmed(uint256,address)": "80f59a65",
    "isOwner(address)": "2f54bf6e",
    "numConfirmationsRequired()": "d0549b85",
    "owner()": "8da5cb5b",
    "owners(uint256)": "025e7c27",
    "renounceOwnership()": "715018a6",
    "revokeConfirmation(uint256)": "20ea8d86",
    "submitTransaction(address,uint256,bytes)": "c6427474",
    "transactions(uint256)": "9ace38c2",
    "transferOwnership(address)": "f2fde38b"
  },
  "id": 47
}