{
  "abi": [
    {
      "anonymous": false,
      "inputs": [
        {
          "indexed": true,
          "internalType": "address",
          "name": "owner",
          "type": "address"
        },
        {
          "indexed": true,
          "internalType": "uint256",
          "name": "txIndex",
          "type": "uint256"
        }
      ],
      "name": "ConfirmTransaction",
      "type": "event"
    },
    {
      "anonymous": false,
      "inputs": [
        {
          "indexed": true,
          "internalType": "address",
          "name": "sender",
          "type": "address"
        },
        {
          "indexed": false,
          "internalType": "uint256",
          "name": "amount",
          "type": "uint256"
        },
        {
          "indexed": false,
          "internalType": "uint256",
          "name": "balance",
          "type": "uint256"
        }
      ],
      "name": "Deposit",
      "type": "event"
    },
    {
      "anonymous": false,
      "inputs": [
        {
          "indexed": true,
          "internalType": "address",
          "name": "owner",
          "type": "address"
        },
        {
          "indexed": true,
          "internalType": "uint256",
          "name": "txIndex",
          "type": "uint256"
        }
      ],
      "name": "ExecuteTransaction",
      "type": "event"
    },
    {
      "anonymous": false,
      "inputs": [
        {
          "indexed": false,
          "internalType": "uint8",
          "name": "version",
          "type": "uint8"
        }
      ],
      "name": "Initialized",
      "type": "event"
    },
    {
      "anonymous": false,
      "inputs": [
        {
          "indexed": true,
          "internalType": "address",
          "name": "owner",
          "type": "address"
        },
        {
          "indexed": true,
          "internalType": "uint256",
          "name": "txIndex",
          "type": "uint256"
        }
      ],
      "name": "RevokeConfirmation",
      "type": "event"
    },
    {
      "anonymous": false,
      "inputs": [
        {
          "indexed": true,
          "internalType": "address",
          "name": "owner",
          "type": "address"
        },
        {
          "indexed": true,
          "internalType": "uint256",
          "name": "txIndex",
          "type": "uint256"
        },
        {
          "indexed": true,
          "internalType": "address",
          "name": "to",
          "type": "address"
        },
        {
          "indexed": false,
          "internalType": "uint256",
          "name": "value",
          "type": "uint256"
        },
        {
          "indexed": false,
          "internalType": "bytes",
          "name": "data",
          "type": "bytes"
        }
      ],
      "name": "SubmitTransaction",
      "type": "event"
    },
    {
      "inputs": [
        {
          "internalType": "uint256",
          "name": "_txIndex",
          "type": "uint256"
        }
      ],
      "name": "confirmTransaction",
      "outputs": [],
      "stateMutability": "nonpayable",
      "type": "function"
    },
    {
      "inputs": [
        {
          "internalType": "uint256",
          "name": "_txIndex",
          "type": "uint256"
        }
      ],
      "name": "executeTransaction",
      "outputs": [],
      "stateMutability": "nonpayable",
      "type": "function"
    },
    {
      "inputs": [],
      "name": "getOwners",
      "outputs": [
        {
          "internalType": "address[]",
          "name": "",
          "type": "address[]"
        }
      ],
      "stateMutability": "view",
      "type": "function"
    },
    {
      "inputs": [
        {
          "internalType": "uint256",
          "name": "_txIndex",
          "type": "uint256"
        }
      ],
      "name": "getTransaction",
      "outputs": [
        {
          "internalType": "address",
          "name": "to",
          "type": "address"
        },
        {
          "internalType": "uint256",
          "name": "value",
          "type": "uint256"
        },
        {
          "internalType": "bytes",
          "name": "data",
          "type": "bytes"
        },
        {
          "internalType": "bool",
          "name": "executed",
          "type": "bool"
        },
        {
          "internalType": "uint256",
          "name": "numConfirmations",
          "type": "uint256"
        }
      ],
      "stateMutability": "view",
      "type": "function"
    },
    {
      "inputs": [],
      "name": "getTransactionCount",
      "outputs": [
        {
          "internalType": "uint256",
          "name": "",
          "type": "uint256"
        }
      ],
      "stateMutability": "view",
      "type": "function"
    },
    {
      "inputs": [
        {
          "internalType": "address[]",
          "name": "_owners",
          "type": "address[]"
        },
        {
          "internalType": "uint256",
          "name": "_numConfirmationsRequired",
          "type": "uint256"
        }
      ],
      "name": "initialize",
      "outputs": [],
      "stateMutability": "nonpayable",
      "type": "function"
    },
    {
      "inputs": [
        {
          "internalType": "uint256",
          "name": "",
          "type": "uint256"
        },
        {
          "internalType": "address",
          "name": "",
          "type": "address"
        }
      ],
      "name": "isConfirmed",
      "outputs": [
        {
          "internalType": "bool",
          "name": "",
          "type": "bool"
        }
      ],
      "stateMutability": "view",
      "type": "function"
    },
    {
      "inputs": [
        {
          "internalType": "address",
          "name": "",
          "type": "address"
        }
      ],
      "name": "isOwner",
      "outputs": [
        {
          "internalType": "bool",
          "name": "",
          "type": "bool"
        }
      ],
      "stateMutability": "view",
      "type": "function"
    },
    {
      "inputs": [],
      "name": "numConfirmationsRequired",
      "outputs": [
        {
          "internalType": "uint256",
          "name": "",
          "type": "uint256"
        }
      ],
      "stateMutability": "view",
      "type": "function"
    },
    {
      "inputs": [
        {
          "internalType": "uint256",
          "name": "",
          "type": "uint256"
        }
      ],
      "name": "owners",
      "outputs": [
        {
          "internalType": "address",
          "name": "",
          "type": "address"
        }
      ],
      "stateMutability": "view",
      "type": "function"
    },
    {
      "inputs": [
        {
          "internalType": "uint256",
          "name": "_txIndex",
          "type": "uint256"
        }
      ],
      "name": "revokeConfirmation",
      "outputs": [],
      "stateMutability": "nonpayable",
      "type": "function"
    },
    {
      "inputs": [
        {
          "internalType": "address",
          "name": "_to",
          "type": "address"
        },
        {
          "internalType": "uint256",
          "name": "_value",
          "type": "uint256"
        },
        {
          "internalType": "bytes",
          "name": "_data",
          "type": "bytes"
        }
      ],
      "name": "submitTransaction",
      "outputs": [],
      "stateMutability": "nonpayable",
      "type": "function"
    },
    {
      "inputs": [
        {
          "internalType": "uint256",
          "name": "",
          "type": "uint256"
        }
      ],
      "name": "transactions",
      "outputs": [
        {
          "internalType": "address",
          "name": "to",
          "type": "address"
        },
        {
          "internalType": "uint256",
          "name": "value",
          "type": "uint256"
        },
        {
          "internalType": "bytes",
          "name": "data",
          "type": "bytes"
        },
        {
          "internalType": "bool",
          "name": "executed",
          "type": "bool"
        },
        {
          "internalType": "uint256",
          "name": "numConfirmations",
          "type": "uint256"
        }
      ],
      "stateMutability": "view",
      "type": "function"
    },
    {
      "stateMutability": "payable",
      "type": "receive"
    }
  ],
  "bytecode": {
    "object": "0x608060405234801561001057600080fd5b50611e0e806100206000396000f3fe6080604052600436106100d65760003560e01c806380f59a651161007f578063c01a8c8411610059578063c01a8c84146102b5578063c6427474146102d5578063d0549b85146102f5578063ee22610b1461030b57600080fd5b806380f59a65146102385780639ace38c214610273578063a0e67e2b1461029357600080fd5b80632f54bf6e116100b05780632f54bf6e146101a757806333ea3dc8146101e757806360b5bb3f1461021857600080fd5b8063025e7c271461011c57806320ea8d86146101665780632e7700f01461018857600080fd5b36610117576040805134815247602082015233917f90890809c654f11d6e72a28fa60149770a0d11ec6c92319d6ceb2bb0a4ea1a15910160405180910390a2005b600080fd5b34801561012857600080fd5b5061013c610137366004611711565b61032b565b60405173ffffffffffffffffffffffffffffffffffffffff90911681526020015b60405180910390f35b34801561017257600080fd5b50610186610181366004611711565b610362565b005b34801561019457600080fd5b506003545b60405190815260200161015d565b3480156101b357600080fd5b506101d76101c2366004611753565b60046020526000908152604090205460ff1681565b604051901515815260200161015d565b3480156101f357600080fd5b50610207610202366004611711565b61067e565b60405161015d9594939291906117d9565b34801561022457600080fd5b506101866102333660046118a0565b610786565b34801561024457600080fd5b506101d7610253366004611953565b600560209081526000928352604080842090915290825290205460ff1681565b34801561027f57600080fd5b5061020761028e366004611711565b610c9b565b34801561029f57600080fd5b506102a8610d81565b60405161015d919061197f565b3480156102c157600080fd5b506101866102d0366004611711565b610df0565b3480156102e157600080fd5b506101866102f03660046119d9565b61110f565b34801561030157600080fd5b5061019960015481565b34801561031757600080fd5b50610186610326366004611711565b611329565b6002818154811061033b57600080fd5b60009182526020909120015473ffffffffffffffffffffffffffffffffffffffff16905081565b3360009081526004602052604090205460ff166103e0576040517f08c379a000000000000000000000000000000000000000000000000000000000815260206004820152600960248201527f6e6f74206f776e6572000000000000000000000000000000000000000000000060448201526064015b60405180910390fd5b60035481908110610473576040517f08c379a000000000000000000000000000000000000000000000000000000000815260206004820152602a60248201527f4d756c746953696757616c6c65743a205472616e73616374696f6e20646f657360448201527f206e6f742065786973740000000000000000000000000000000000000000000060648201526084016103d7565b816003818154811061048757610487611aa6565b600091825260209091206003600590920201015460ff161561052b576040517f08c379a000000000000000000000000000000000000000000000000000000000815260206004820152602c60248201527f4d756c746953696757616c6c65743a205472616e73616374696f6e20616c726560448201527f616479206578656375746564000000000000000000000000000000000000000060648201526084016103d7565b60006003848154811061054057610540611aa6565b600091825260208083208784526005808352604080862033875290935291909320549102909101915060ff166105f8576040517f08c379a000000000000000000000000000000000000000000000000000000000815260206004820152602960248201527f4d756c746953696757616c6c65743a205472616e73616374696f6e206e6f742060448201527f636f6e6669726d6564000000000000000000000000000000000000000000000060648201526084016103d7565b600181600401600082825461060d9190611b04565b9091555050600084815260056020908152604080832033808552925280832080547fffffffffffffffffffffffffffffffffffffffffffffffffffffffffffffff001690555186927ff0dca620e2e81f7841d07bcc105e1704fb01475b278a9d4c236e1c62945edd5591a350505050565b600080606060008060006003878154811061069b5761069b611aa6565b60009182526020909120600590910201805460018201546003830154600484015460028501805495965073ffffffffffffffffffffffffffffffffffffffff9094169492939260ff9092169183906106f290611b1d565b80601f016020809104026020016040519081016040528092919081815260200182805461071e90611b1d565b801561076b5780601f106107405761010080835404028352916020019161076b565b820191906000526020600020905b81548152906001019060200180831161074e57829003601f168201915b50505050509250955095509550955095505091939590929450565b600054610100900460ff16158080156107a65750600054600160ff909116105b806107c05750303b1580156107c0575060005460ff166001145b61084c576040517f08c379a000000000000000000000000000000000000000000000000000000000815260206004820152602e60248201527f496e697469616c697a61626c653a20636f6e747261637420697320616c72656160448201527f647920696e697469616c697a656400000000000000000000000000000000000060648201526084016103d7565b600080547fffffffffffffffffffffffffffffffffffffffffffffffffffffffffffffff0016600117905580156108aa57600080547fffffffffffffffffffffffffffffffffffffffffffffffffffffffffffff00ff166101001790555b600083511161093b576040517f08c379a000000000000000000000000000000000000000000000000000000000815260206004820152602960248201527f4d756c746953696757616c6c65743a204e756d626572206f66206f776e65727360448201527f20617265207a65726f000000000000000000000000000000000000000000000060648201526084016103d7565b60008211801561094c575082518211155b6109d8576040517f08c379a000000000000000000000000000000000000000000000000000000000815260206004820152603160248201527f4d756c746953696757616c6c65743a20526571756972656420636f6e6669726d60448201527f6174696f6e7320697320696e76616c696400000000000000000000000000000060648201526084016103d7565b60005b8351811015610c2d5760008482815181106109f8576109f8611aa6565b60200260200101519050600073ffffffffffffffffffffffffffffffffffffffff168173ffffffffffffffffffffffffffffffffffffffff1603610abe576040517f08c379a000000000000000000000000000000000000000000000000000000000815260206004820152602260248201527f4d756c746953696757616c6c65743a203078302063616e2774206265206f776e60448201527f657200000000000000000000000000000000000000000000000000000000000060648201526084016103d7565b73ffffffffffffffffffffffffffffffffffffffff811660009081526004602052604090205460ff1615610b74576040517f08c379a000000000000000000000000000000000000000000000000000000000815260206004820152602360248201527f4d756c746953696757616c6c65743a204f776e6572206973206e6f7420756e6960448201527f717565000000000000000000000000000000000000000000000000000000000060648201526084016103d7565b73ffffffffffffffffffffffffffffffffffffffff16600081815260046020526040812080547fffffffffffffffffffffffffffffffffffffffffffffffffffffffffffffff001660019081179091556002805491820181559091527f405787fa12a823e0f2b7631cc41b3ba8828b3321ca811111fa75cd3aa3bb5ace0180547fffffffffffffffffffffffff000000000000000000000000000000000000000016909117905580610c2581611b70565b9150506109db565b5060018290558015610c9657600080547fffffffffffffffffffffffffffffffffffffffffffffffffffffffffffff00ff169055604051600181527f7f26b83ff96e1f2b6a682f133852f6798a09c465da95921460cefb38474024989060200160405180910390a15b505050565b60038181548110610cab57600080fd5b600091825260209091206005909102018054600182015460028301805473ffffffffffffffffffffffffffffffffffffffff9093169450909291610cee90611b1d565b80601f0160208091040260200160405190810160405280929190818152602001828054610d1a90611b1d565b8015610d675780601f10610d3c57610100808354040283529160200191610d67565b820191906000526020600020905b815481529060010190602001808311610d4a57829003601f168201915b505050506003830154600490930154919260ff1691905085565b60606002805480602002602001604051908101604052809291908181526020018280548015610de657602002820191906000526020600020905b815473ffffffffffffffffffffffffffffffffffffffff168152600190910190602001808311610dbb575b5050505050905090565b3360009081526004602052604090205460ff16610e69576040517f08c379a000000000000000000000000000000000000000000000000000000000815260206004820152600960248201527f6e6f74206f776e6572000000000000000000000000000000000000000000000060448201526064016103d7565b60035481908110610efc576040517f08c379a000000000000000000000000000000000000000000000000000000000815260206004820152602a60248201527f4d756c746953696757616c6c65743a205472616e73616374696f6e20646f657360448201527f206e6f742065786973740000000000000000000000000000000000000000000060648201526084016103d7565b8160038181548110610f1057610f10611aa6565b600091825260209091206003600590920201015460ff1615610fb4576040517f08c379a000000000000000000000000000000000000000000000000000000000815260206004820152602c60248201527f4d756c746953696757616c6c65743a205472616e73616374696f6e20616c726560448201527f616479206578656375746564000000000000000000000000000000000000000060648201526084016103d7565b6000838152600560209081526040808320338452909152902054839060ff1615611060576040517f08c379a000000000000000000000000000000000000000000000000000000000815260206004820152602d60248201527f4d756c746953696757616c6c65743a205472616e73616374696f6e20616c726560448201527f61647920636f6e6669726d65640000000000000000000000000000000000000060648201526084016103d7565b60006003858154811061107557611075611aa6565b90600052602060002090600502019050600181600401600082825461109a9190611ba8565b9091555050600085815260056020908152604080832033808552925280832080547fffffffffffffffffffffffffffffffffffffffffffffffffffffffffffffff001660011790555187927f5cbe105e36805f7820e291f799d5794ff948af2a5f664e580382defb6339004191a35050505050565b3360009081526004602052604090205460ff16611188576040517f08c379a000000000000000000000000000000000000000000000000000000000815260206004820152600960248201527f6e6f74206f776e6572000000000000000000000000000000000000000000000060448201526064016103d7565b600380546040805160a08101825273ffffffffffffffffffffffffffffffffffffffff878116825260208201878152928201868152600060608401819052608084018190526001860187559590955281517fc2575a0e9e593c00f959f8c92f12db2869c3395a3b0502d05e2516446f71f85b6005860290810180547fffffffffffffffffffffffff0000000000000000000000000000000000000000169290931691909117825592517fc2575a0e9e593c00f959f8c92f12db2869c3395a3b0502d05e2516446f71f85c84015593519293909290917fc2575a0e9e593c00f959f8c92f12db2869c3395a3b0502d05e2516446f71f85d019061128a9082611c09565b5060608201516003820180547fffffffffffffffffffffffffffffffffffffffffffffffffffffffffffffff001691151591909117905560809091015160049091015560405173ffffffffffffffffffffffffffffffffffffffff851690829033907fd5a05bf70715ad82a09a756320284a1b54c9ff74cd0f8cce6219e79b563fe59d9061131b9088908890611d23565b60405180910390a450505050565b3360009081526004602052604090205460ff166113a2576040517f08c379a000000000000000000000000000000000000000000000000000000000815260206004820152600960248201527f6e6f74206f776e6572000000000000000000000000000000000000000000000060448201526064016103d7565b60035481908110611435576040517f08c379a000000000000000000000000000000000000000000000000000000000815260206004820152602a60248201527f4d756c746953696757616c6c65743a205472616e73616374696f6e20646f657360448201527f206e6f742065786973740000000000000000000000000000000000000000000060648201526084016103d7565b816003818154811061144957611449611aa6565b600091825260209091206003600590920201015460ff16156114ed576040517f08c379a000000000000000000000000000000000000000000000000000000000815260206004820152602c60248201527f4d756c746953696757616c6c65743a205472616e73616374696f6e20616c726560448201527f616479206578656375746564000000000000000000000000000000000000000060648201526084016103d7565b60006003848154811061150257611502611aa6565b90600052602060002090600502019050600154816004015410156115a8576040517f08c379a000000000000000000000000000000000000000000000000000000000815260206004820152603c60248201527f4d756c746953696757616c6c65743a204e756d626572206f6620636f6e66697260448201527f6d6174696f6e206973206c657373207468616e2072657175697265640000000060648201526084016103d7565b6003810180547fffffffffffffffffffffffffffffffffffffffffffffffffffffffffffffff0016600190811790915581549082015460405160009273ffffffffffffffffffffffffffffffffffffffff16919061160a906002860190611d44565b60006040518083038185875af1925050503d8060008114611647576040519150601f19603f3d011682016040523d82523d6000602084013e61164c565b606091505b50509050806116dd576040517f08c379a000000000000000000000000000000000000000000000000000000000815260206004820152602760248201527f4d756c746953696757616c6c65743a205472616e73616374696f6e2063616c6c60448201527f206661696c65640000000000000000000000000000000000000000000000000060648201526084016103d7565b604051859033907f5445f318f4f5fcfb66592e68e0cc5822aa15664039bd5f0ffde24c5a8142b1ac90600090a35050505050565b60006020828403121561172357600080fd5b5035919050565b803573ffffffffffffffffffffffffffffffffffffffff8116811461174e57600080fd5b919050565b60006020828403121561176557600080fd5b61176e8261172a565b9392505050565b6000815180845260005b8181101561179b5760208185018101518683018201520161177f565b5060006020828601015260207fffffffffffffffffffffffffffffffffffffffffffffffffffffffffffffffe0601f83011685010191505092915050565b73ffffffffffffffffffffffffffffffffffffffff8616815284602082015260a06040820152600061180e60a0830186611775565b931515606083015250608001529392505050565b7f4e487b7100000000000000000000000000000000000000000000000000000000600052604160045260246000fd5b604051601f82017fffffffffffffffffffffffffffffffffffffffffffffffffffffffffffffffe016810167ffffffffffffffff8111828210171561189857611898611822565b604052919050565b600080604083850312156118b357600080fd5b823567ffffffffffffffff808211156118cb57600080fd5b818501915085601f8301126118df57600080fd5b81356020828211156118f3576118f3611822565b8160051b9250611904818401611851565b828152928401810192818101908985111561191e57600080fd5b948201945b84861015611943576119348661172a565b82529482019490820190611923565b9997909101359750505050505050565b6000806040838503121561196657600080fd5b823591506119766020840161172a565b90509250929050565b6020808252825182820181905260009190848201906040850190845b818110156119cd57835173ffffffffffffffffffffffffffffffffffffffff168352928401929184019160010161199b565b50909695505050505050565b6000806000606084860312156119ee57600080fd5b6119f78461172a565b92506020808501359250604085013567ffffffffffffffff80821115611a1c57600080fd5b818701915087601f830112611a3057600080fd5b813581811115611a4257611a42611822565b611a72847fffffffffffffffffffffffffffffffffffffffffffffffffffffffffffffffe0601f84011601611851565b91508082528884828501011115611a8857600080fd5b80848401858401376000848284010152508093505050509250925092565b7f4e487b7100000000000000000000000000000000000000000000000000000000600052603260045260246000fd5b7f4e487b7100000000000000000000000000000000000000000000000000000000600052601160045260246000fd5b81810381811115611b1757611b17611ad5565b92915050565b600181811c90821680611b3157607f821691505b602082108103611b6a577f4e487b7100000000000000000000000000000000000000000000000000000000600052602260045260246000fd5b50919050565b60007fffffffffffffffffffffffffffffffffffffffffffffffffffffffffffffffff8203611ba157611ba1611ad5565b5060010190565b80820180821115611b1757611b17611ad5565b601f821115610c9657600081815260208120601f850160051c81016020861015611be25750805b601f850160051c820191505b81811015611c0157828155600101611bee565b505050505050565b815167ffffffffffffffff811115611c2357611c23611822565b611c3781611c318454611b1d565b84611bbb565b602080601f831160018114611c8a5760008415611c545750858301515b7fffffffffffffffffffffffffffffffffffffffffffffffffffffffffffffffff600386901b1c1916600185901b178555611c01565b6000858152602081207fffffffffffffffffffffffffffffffffffffffffffffffffffffffffffffffe08616915b82811015611cd757888601518255948401946001909101908401611cb8565b5085821015611d1357878501517fffffffffffffffffffffffffffffffffffffffffffffffffffffffffffffffff600388901b60f8161c191681555b5050505050600190811b01905550565b828152604060208201526000611d3c6040830184611775565b949350505050565b6000808354611d5281611b1d565b60018281168015611d6a5760018114611d9d57611dcc565b7fffffffffffffffffffffffffffffffffffffffffffffffffffffffffffffff0084168752821515830287019450611dcc565b8760005260208060002060005b85811015611dc35781548a820152908401908201611daa565b50505082870194505b5092969550505050505056fea2646970667358221220da42abdda1fb9db45ebdf2fd0b0eafc41055441ab674eb3d3e55338ed1593ac364736f6c63430008110033",
    "linkReferences": {}
  },
  "methodIdentifiers": {
    "confirmTransaction(uint256)": "c01a8c84",
    "executeTransaction(uint256)": "ee22610b",
    "getOwners()": "a0e67e2b",
    "getTransaction(uint256)": "33ea3dc8",
    "getTransactionCount()": "2e7700f0",
    "initialize(address[],uint256)": "60b5bb3f",
    "isConfirmed(uint256,address)": "80f59a65",
    "isOwner(address)": "2f54bf6e",
    "numConfirmationsRequired()": "d0549b85",
    "owners(uint256)": "025e7c27",
    "revokeConfirmation(uint256)": "20ea8d86",
    "submitTransaction(address,uint256,bytes)": "c6427474",
    "transactions(uint256)": "9ace38c2"
  },
  "id": 48
}