{
  "abi": [
    {
      "inputs": [
        {
          "internalType": "string",
          "name": "name_",
          "type": "string"
        },
        {
          "internalType": "string",
          "name": "symbol_",
          "type": "string"
        },
        {
          "internalType": "string",
          "name": "baseURI_",
          "type": "string"
        },
        {
          "internalType": "enum IERC5484.BurnAuth",
          "name": "burnAuth_",
          "type": "uint8"
        }
      ],
      "stateMutability": "nonpayable",
      "type": "constructor"
    },
    {
      "anonymous": false,
      "inputs": [
        {
          "indexed": true,
          "internalType": "address",
          "name": "owner",
          "type": "address"
        },
        {
          "indexed": true,
          "internalType": "address",
          "name": "approved",
          "type": "address"
        },
        {
          "indexed": true,
          "internalType": "uint256",
          "name": "tokenId",
          "type": "uint256"
        }
      ],
      "name": "Approval",
      "type": "event"
    },
    {
      "anonymous": false,
      "inputs": [
        {
          "indexed": true,
          "internalType": "address",
          "name": "owner",
          "type": "address"
        },
        {
          "indexed": true,
          "internalType": "address",
          "name": "operator",
          "type": "address"
        },
        {
          "indexed": false,
          "internalType": "bool",
          "name": "approved",
          "type": "bool"
        }
      ],
      "name": "ApprovalForAll",
      "type": "event"
    },
    {
      "anonymous": false,
      "inputs": [
        {
          "indexed": true,
          "internalType": "address",
          "name": "from",
          "type": "address"
        },
        {
          "indexed": true,
          "internalType": "address",
          "name": "to",
          "type": "address"
        },
        {
          "indexed": true,
          "internalType": "uint256",
          "name": "tokenId",
          "type": "uint256"
        },
        {
          "indexed": false,
          "internalType": "enum IERC5484.BurnAuth",
          "name": "burnAuth",
          "type": "uint8"
        }
      ],
      "name": "Issued",
      "type": "event"
    },
    {
      "anonymous": false,
      "inputs": [
        {
          "indexed": true,
          "internalType": "address",
          "name": "previousOwner",
          "type": "address"
        },
        {
          "indexed": true,
          "internalType": "address",
          "name": "newOwner",
          "type": "address"
        }
      ],
      "name": "OwnershipTransferred",
      "type": "event"
    },
    {
      "anonymous": false,
      "inputs": [
        {
          "indexed": true,
          "internalType": "address",
          "name": "from",
          "type": "address"
        },
        {
          "indexed": true,
          "internalType": "address",
          "name": "to",
          "type": "address"
        },
        {
          "indexed": true,
          "internalType": "uint256",
          "name": "tokenId",
          "type": "uint256"
        }
      ],
      "name": "Transfer",
      "type": "event"
    },
    {
      "inputs": [
        {
          "internalType": "address",
          "name": "to",
          "type": "address"
        },
        {
          "internalType": "uint256",
          "name": "tokenId",
          "type": "uint256"
        }
      ],
      "name": "approve",
      "outputs": [],
      "stateMutability": "nonpayable",
      "type": "function"
    },
    {
      "inputs": [
        {
          "internalType": "address",
          "name": "owner",
          "type": "address"
        }
      ],
      "name": "balanceOf",
      "outputs": [
        {
          "internalType": "uint256",
          "name": "",
          "type": "uint256"
        }
      ],
      "stateMutability": "view",
      "type": "function"
    },
    {
      "inputs": [
        {
          "internalType": "uint256",
          "name": "tokenId",
          "type": "uint256"
        }
      ],
      "name": "burn",
      "outputs": [],
      "stateMutability": "nonpayable",
      "type": "function"
    },
    {
      "inputs": [],
      "name": "burnAuth",
      "outputs": [
        {
          "internalType": "enum IERC5484.BurnAuth",
          "name": "",
          "type": "uint8"
        }
      ],
      "stateMutability": "view",
      "type": "function"
    },
    {
      "inputs": [
        {
          "internalType": "uint256",
          "name": "tokenId",
          "type": "uint256"
        }
      ],
      "name": "getApproved",
      "outputs": [
        {
          "internalType": "address",
          "name": "",
          "type": "address"
        }
      ],
      "stateMutability": "view",
      "type": "function"
    },
    {
      "inputs": [
        {
          "internalType": "address",
          "name": "owner",
          "type": "address"
        },
        {
          "internalType": "address",
          "name": "operator",
          "type": "address"
        }
      ],
      "name": "isApprovedForAll",
      "outputs": [
        {
          "internalType": "bool",
          "name": "",
          "type": "bool"
        }
      ],
      "stateMutability": "view",
      "type": "function"
    },
    {
      "inputs": [],
      "name": "name",
      "outputs": [
        {
          "internalType": "string",
          "name": "",
          "type": "string"
        }
      ],
      "stateMutability": "view",
      "type": "function"
    },
    {
      "inputs": [],
      "name": "owner",
      "outputs": [
        {
          "internalType": "address",
          "name": "",
          "type": "address"
        }
      ],
      "stateMutability": "view",
      "type": "function"
    },
    {
      "inputs": [
        {
          "internalType": "uint256",
          "name": "tokenId",
          "type": "uint256"
        }
      ],
      "name": "ownerOf",
      "outputs": [
        {
          "internalType": "address",
          "name": "",
          "type": "address"
        }
      ],
      "stateMutability": "view",
      "type": "function"
    },
    {
      "inputs": [],
      "name": "renounceOwnership",
      "outputs": [],
      "stateMutability": "nonpayable",
      "type": "function"
    },
    {
      "inputs": [
        {
          "internalType": "address",
          "name": "to",
          "type": "address"
        },
        {
          "internalType": "string",
          "name": "uri",
          "type": "string"
        }
      ],
      "name": "safeMint",
      "outputs": [
        {
          "internalType": "uint256",
          "name": "",
          "type": "uint256"
        }
      ],
      "stateMutability": "nonpayable",
      "type": "function"
    },
    {
      "inputs": [
        {
          "internalType": "address",
          "name": "from",
          "type": "address"
        },
        {
          "internalType": "address",
          "name": "to",
          "type": "address"
        },
        {
          "internalType": "uint256",
          "name": "tokenId",
          "type": "uint256"
        }
      ],
      "name": "safeTransferFrom",
      "outputs": [],
      "stateMutability": "nonpayable",
      "type": "function"
    },
    {
      "inputs": [
        {
          "internalType": "address",
          "name": "from",
          "type": "address"
        },
        {
          "internalType": "address",
          "name": "to",
          "type": "address"
        },
        {
          "internalType": "uint256",
          "name": "tokenId",
          "type": "uint256"
        },
        {
          "internalType": "bytes",
          "name": "data",
          "type": "bytes"
        }
      ],
      "name": "safeTransferFrom",
      "outputs": [],
      "stateMutability": "nonpayable",
      "type": "function"
    },
    {
      "inputs": [
        {
          "internalType": "address",
          "name": "operator",
          "type": "address"
        },
        {
          "internalType": "bool",
          "name": "approved",
          "type": "bool"
        }
      ],
      "name": "setApprovalForAll",
      "outputs": [],
      "stateMutability": "nonpayable",
      "type": "function"
    },
    {
      "inputs": [
        {
          "internalType": "bytes4",
          "name": "interfaceId",
          "type": "bytes4"
        }
      ],
      "name": "supportsInterface",
      "outputs": [
        {
          "internalType": "bool",
          "name": "",
          "type": "bool"
        }
      ],
      "stateMutability": "view",
      "type": "function"
    },
    {
      "inputs": [],
      "name": "symbol",
      "outputs": [
        {
          "internalType": "string",
          "name": "",
          "type": "string"
        }
      ],
      "stateMutability": "view",
      "type": "function"
    },
    {
      "inputs": [
        {
          "internalType": "uint256",
          "name": "index",
          "type": "uint256"
        }
      ],
      "name": "tokenByIndex",
      "outputs": [
        {
          "internalType": "uint256",
          "name": "",
          "type": "uint256"
        }
      ],
      "stateMutability": "view",
      "type": "function"
    },
    {
      "inputs": [
        {
          "internalType": "address",
          "name": "owner",
          "type": "address"
        },
        {
          "internalType": "uint256",
          "name": "index",
          "type": "uint256"
        }
      ],
      "name": "tokenOfOwnerByIndex",
      "outputs": [
        {
          "internalType": "uint256",
          "name": "",
          "type": "uint256"
        }
      ],
      "stateMutability": "view",
      "type": "function"
    },
    {
      "inputs": [
        {
          "internalType": "uint256",
          "name": "tokenId",
          "type": "uint256"
        }
      ],
      "name": "tokenURI",
      "outputs": [
        {
          "internalType": "string",
          "name": "",
          "type": "string"
        }
      ],
      "stateMutability": "view",
      "type": "function"
    },
    {
      "inputs": [],
      "name": "totalSupply",
      "outputs": [
        {
          "internalType": "uint256",
          "name": "",
          "type": "uint256"
        }
      ],
      "stateMutability": "view",
      "type": "function"
    },
    {
      "inputs": [
        {
          "internalType": "address",
          "name": "from",
          "type": "address"
        },
        {
          "internalType": "address",
          "name": "to",
          "type": "address"
        },
        {
          "internalType": "uint256",
          "name": "tokenId",
          "type": "uint256"
        }
      ],
      "name": "transferFrom",
      "outputs": [],
      "stateMutability": "nonpayable",
      "type": "function"
    },
    {
      "inputs": [
        {
          "internalType": "address",
          "name": "newOwner",
          "type": "address"
        }
      ],
      "name": "transferOwnership",
      "outputs": [],
      "stateMutability": "nonpayable",
      "type": "function"
    }
  ],
  "bytecode": {
    "object": "0x60a06040523480156200001157600080fd5b5060405162002fa538038062002fa58339810160408190526200003491620001d4565b838360006200004483826200030c565b5060016200005382826200030c565b505050620000706200006a620000b960201b60201c565b620000bd565b600d6200007e83826200030c565b50806003811115620000945762000094620003d8565b6080816003811115620000ab57620000ab620003d8565b8152505050505050620003ee565b3390565b600b80546001600160a01b038381166001600160a01b0319831681179093556040519116919082907f8be0079c531659141344cd1fd0a4f28419497f9722a3daafe3b4186f6b6457e090600090a35050565b634e487b7160e01b600052604160045260246000fd5b600082601f8301126200013757600080fd5b81516001600160401b03808211156200015457620001546200010f565b604051601f8301601f19908116603f011681019082821181831017156200017f576200017f6200010f565b816040528381526020925086838588010111156200019c57600080fd5b600091505b83821015620001c05785820183015181830184015290820190620001a1565b600093810190920192909252949350505050565b60008060008060808587031215620001eb57600080fd5b84516001600160401b03808211156200020357600080fd5b620002118883890162000125565b955060208701519150808211156200022857600080fd5b620002368883890162000125565b945060408701519150808211156200024d57600080fd5b506200025c8782880162000125565b9250506060850151600481106200027257600080fd5b939692955090935050565b600181811c908216806200029257607f821691505b602082108103620002b357634e487b7160e01b600052602260045260246000fd5b50919050565b601f8211156200030757600081815260208120601f850160051c81016020861015620002e25750805b601f850160051c820191505b818110156200030357828155600101620002ee565b5050505b505050565b81516001600160401b038111156200032857620003286200010f565b62000340816200033984546200027d565b84620002b9565b602080601f8311600181146200037857600084156200035f5750858301515b600019600386901b1c1916600185901b17855562000303565b600085815260208120601f198616915b82811015620003a95788860151825594840194600190910190840162000388565b5085821015620003c85787850151600019600388901b60f8161c191681555b5050505050600190811b01905550565b634e487b7160e01b600052602160045260246000fd5b608051612b9462000411600039600081816102380152611d920152612b946000f3fe608060405234801561001057600080fd5b50600436106101825760003560e01c80636352211e116100d8578063a22cb4651161008c578063d204c45e11610066578063d204c45e1461033d578063e985e9c514610350578063f2fde38b1461036357600080fd5b8063a22cb46514610304578063b88d4fde14610317578063c87b56dd1461032a57600080fd5b8063715018a6116100bd578063715018a6146102d65780638da5cb5b146102de57806395d89b41146102fc57600080fd5b80636352211e146102b057806370a08231146102c357600080fd5b806323b872dd1161013a57806342842e0e1161011457806342842e0e1461027757806342966c681461028a5780634f6ccce71461029d57600080fd5b806323b872dd146102235780632920b169146102365780632f745c591461026457600080fd5b8063081812fc1161016b578063081812fc146101c4578063095ea7b3146101fc57806318160ddd1461021157600080fd5b806301ffc9a71461018757806306fdde03146101af575b600080fd5b61019a6101953660046124c4565b610376565b60405190151581526020015b60405180910390f35b6101b7610387565b6040516101a6919061254f565b6101d76101d2366004612562565b610419565b60405173ffffffffffffffffffffffffffffffffffffffff90911681526020016101a6565b61020f61020a3660046125a4565b61044d565b005b6008545b6040519081526020016101a6565b61020f6102313660046125ce565b6105de565b7f00000000000000000000000000000000000000000000000000000000000000006040516101a6919061260a565b6102156102723660046125a4565b610680565b61020f6102853660046125ce565b61074f565b61020f610298366004612562565b61076a565b6102156102ab366004612562565b61080b565b6101d76102be366004612562565b6108c9565b6102156102d136600461264b565b610955565b61020f610a23565b600b5473ffffffffffffffffffffffffffffffffffffffff166101d7565b6101b7610a37565b61020f610312366004612666565b610a46565b61020f610325366004612765565b610a55565b6101b7610338366004612562565b610afd565b61021561034b3660046127e1565b610b08565b61019a61035e366004612843565b610b48565b61020f61037136600461264b565b610bd8565b600061038182610c8c565b92915050565b60606000805461039690612876565b80601f01602080910402602001604051908101604052809291908181526020018280546103c290612876565b801561040f5780601f106103e45761010080835404028352916020019161040f565b820191906000526020600020905b8154815290600101906020018083116103f257829003601f168201915b5050505050905090565b600061042482610ce2565b5060009081526004602052604090205473ffffffffffffffffffffffffffffffffffffffff1690565b6000610458826108c9565b90508073ffffffffffffffffffffffffffffffffffffffff168373ffffffffffffffffffffffffffffffffffffffff160361051a576040517f08c379a000000000000000000000000000000000000000000000000000000000815260206004820152602160248201527f4552433732313a20617070726f76616c20746f2063757272656e74206f776e6560448201527f720000000000000000000000000000000000000000000000000000000000000060648201526084015b60405180910390fd5b3373ffffffffffffffffffffffffffffffffffffffff8216148061054357506105438133610b48565b6105cf576040517f08c379a000000000000000000000000000000000000000000000000000000000815260206004820152603d60248201527f4552433732313a20617070726f76652063616c6c6572206973206e6f7420746f60448201527f6b656e206f776e6572206f7220617070726f76656420666f7220616c6c0000006064820152608401610511565b6105d98383610d6d565b505050565b6105e9335b82610e0d565b610675576040517f08c379a000000000000000000000000000000000000000000000000000000000815260206004820152602d60248201527f4552433732313a2063616c6c6572206973206e6f7420746f6b656e206f776e6560448201527f72206f7220617070726f766564000000000000000000000000000000000000006064820152608401610511565b6105d9838383610ea0565b600061068b83610955565b8210610719576040517f08c379a000000000000000000000000000000000000000000000000000000000815260206004820152602b60248201527f455243373231456e756d657261626c653a206f776e657220696e646578206f7560448201527f74206f6620626f756e64730000000000000000000000000000000000000000006064820152608401610511565b5073ffffffffffffffffffffffffffffffffffffffff919091166000908152600660209081526040808320938352929052205490565b6105d983838360405180602001604052806000815250610a55565b610773336105e3565b6107ff576040517f08c379a000000000000000000000000000000000000000000000000000000000815260206004820152602d60248201527f4552433732313a2063616c6c6572206973206e6f7420746f6b656e206f776e6560448201527f72206f7220617070726f766564000000000000000000000000000000000000006064820152608401610511565b610808816111b0565b50565b600061081660085490565b82106108a4576040517f08c379a000000000000000000000000000000000000000000000000000000000815260206004820152602c60248201527f455243373231456e756d657261626c653a20676c6f62616c20696e646578206f60448201527f7574206f6620626f756e647300000000000000000000000000000000000000006064820152608401610511565b600882815481106108b7576108b76128c9565b90600052602060002001549050919050565b60008181526002602052604081205473ffffffffffffffffffffffffffffffffffffffff1680610381576040517f08c379a000000000000000000000000000000000000000000000000000000000815260206004820152601860248201527f4552433732313a20696e76616c696420746f6b656e20494400000000000000006044820152606401610511565b600073ffffffffffffffffffffffffffffffffffffffff82166109fa576040517f08c379a000000000000000000000000000000000000000000000000000000000815260206004820152602960248201527f4552433732313a2061646472657373207a65726f206973206e6f74206120766160448201527f6c6964206f776e657200000000000000000000000000000000000000000000006064820152608401610511565b5073ffffffffffffffffffffffffffffffffffffffff1660009081526003602052604090205490565b610a2b6111ed565b610a35600061126e565b565b60606001805461039690612876565b610a513383836112e5565b5050565b610a5f3383610e0d565b610aeb576040517f08c379a000000000000000000000000000000000000000000000000000000000815260206004820152602d60248201527f4552433732313a2063616c6c6572206973206e6f7420746f6b656e206f776e6560448201527f72206f7220617070726f766564000000000000000000000000000000000000006064820152608401610511565b610af784848484611412565b50505050565b6060610381826114b5565b6000610b126111ed565b6000610b1d600c5490565b9050610b2d600c80546001019055565b610b3784826115b0565b610b4181846115ca565b9392505050565b6000610b69600b5473ffffffffffffffffffffffffffffffffffffffff1690565b73ffffffffffffffffffffffffffffffffffffffff163373ffffffffffffffffffffffffffffffffffffffff161480610b41575073ffffffffffffffffffffffffffffffffffffffff80841660009081526005602090815260408083209386168352929052205460ff16610b41565b610be06111ed565b73ffffffffffffffffffffffffffffffffffffffff8116610c83576040517f08c379a000000000000000000000000000000000000000000000000000000000815260206004820152602660248201527f4f776e61626c653a206e6577206f776e657220697320746865207a65726f206160448201527f64647265737300000000000000000000000000000000000000000000000000006064820152608401610511565b6108088161126e565b60007fffffffff0000000000000000000000000000000000000000000000000000000082167f780e9d63000000000000000000000000000000000000000000000000000000001480610381575061038182611693565b60008181526002602052604090205473ffffffffffffffffffffffffffffffffffffffff16610808576040517f08c379a000000000000000000000000000000000000000000000000000000000815260206004820152601860248201527f4552433732313a20696e76616c696420746f6b656e20494400000000000000006044820152606401610511565b600081815260046020526040902080547fffffffffffffffffffffffff00000000000000000000000000000000000000001673ffffffffffffffffffffffffffffffffffffffff84169081179091558190610dc7826108c9565b73ffffffffffffffffffffffffffffffffffffffff167f8c5be1e5ebec7d5bd14f71427d1e84f3dd0314c0f7b2291e5b200ac8c7c3b92560405160405180910390a45050565b600080610e19836108c9565b90508073ffffffffffffffffffffffffffffffffffffffff168473ffffffffffffffffffffffffffffffffffffffff161480610e5a5750610e5a8185610b48565b80610e9857508373ffffffffffffffffffffffffffffffffffffffff16610e8084610419565b73ffffffffffffffffffffffffffffffffffffffff16145b949350505050565b8273ffffffffffffffffffffffffffffffffffffffff16610ec0826108c9565b73ffffffffffffffffffffffffffffffffffffffff1614610f63576040517f08c379a000000000000000000000000000000000000000000000000000000000815260206004820152602560248201527f4552433732313a207472616e736665722066726f6d20696e636f72726563742060448201527f6f776e65720000000000000000000000000000000000000000000000000000006064820152608401610511565b73ffffffffffffffffffffffffffffffffffffffff8216611005576040517f08c379a0000000000000000000000000000000000000000000000000000000008152602060048201526024808201527f4552433732313a207472616e7366657220746f20746865207a65726f2061646460448201527f72657373000000000000000000000000000000000000000000000000000000006064820152608401610511565b6110128383836001611776565b8273ffffffffffffffffffffffffffffffffffffffff16611032826108c9565b73ffffffffffffffffffffffffffffffffffffffff16146110d5576040517f08c379a000000000000000000000000000000000000000000000000000000000815260206004820152602560248201527f4552433732313a207472616e736665722066726f6d20696e636f72726563742060448201527f6f776e65720000000000000000000000000000000000000000000000000000006064820152608401610511565b600081815260046020908152604080832080547fffffffffffffffffffffffff000000000000000000000000000000000000000090811690915573ffffffffffffffffffffffffffffffffffffffff8781168086526003855283862080547fffffffffffffffffffffffffffffffffffffffffffffffffffffffffffffffff01905590871680865283862080546001019055868652600290945282852080549092168417909155905184937fddf252ad1be2c89b69c2b068fc378daa952ba7f163c4a11628f55a4df523b3ef91a46105d983838360016117fb565b6000818152600e6020526040902080547fffffffffffffffffffffffffffffffffffffffffffffffffffffffffffffff0016905561080881611822565b600b5473ffffffffffffffffffffffffffffffffffffffff163314610a35576040517f08c379a000000000000000000000000000000000000000000000000000000000815260206004820181905260248201527f4f776e61626c653a2063616c6c6572206973206e6f7420746865206f776e65726044820152606401610511565b600b805473ffffffffffffffffffffffffffffffffffffffff8381167fffffffffffffffffffffffff0000000000000000000000000000000000000000831681179093556040519116919082907f8be0079c531659141344cd1fd0a4f28419497f9722a3daafe3b4186f6b6457e090600090a35050565b8173ffffffffffffffffffffffffffffffffffffffff168373ffffffffffffffffffffffffffffffffffffffff160361137a576040517f08c379a000000000000000000000000000000000000000000000000000000000815260206004820152601960248201527f4552433732313a20617070726f766520746f2063616c6c6572000000000000006044820152606401610511565b73ffffffffffffffffffffffffffffffffffffffff83811660008181526005602090815260408083209487168084529482529182902080547fffffffffffffffffffffffffffffffffffffffffffffffffffffffffffffff001686151590811790915591519182527f17307eab39ab6107e8899845ad3d59bd9653f200f220920489ca2b5937696c31910160405180910390a3505050565b61141d848484610ea0565b61142984848484611862565b610af7576040517f08c379a000000000000000000000000000000000000000000000000000000000815260206004820152603260248201527f4552433732313a207472616e7366657220746f206e6f6e20455243373231526560448201527f63656976657220696d706c656d656e74657200000000000000000000000000006064820152608401610511565b60606114c082610ce2565b6000828152600a6020526040812080546114d990612876565b80601f016020809104026020016040519081016040528092919081815260200182805461150590612876565b80156115525780601f1061152757610100808354040283529160200191611552565b820191906000526020600020905b81548152906001019060200180831161153557829003601f168201915b505050505090506000611563611a55565b90508051600003611575575092915050565b8151156115a757808260405160200161158f9291906128f8565b60405160208183030381529060405292505050919050565b610e9884611a64565b610a51828260405180602001604052806000815250611aca565b60008281526002602052604090205473ffffffffffffffffffffffffffffffffffffffff1661167b576040517f08c379a000000000000000000000000000000000000000000000000000000000815260206004820152602e60248201527f45524337323155524953746f726167653a2055524920736574206f66206e6f6e60448201527f6578697374656e7420746f6b656e0000000000000000000000000000000000006064820152608401610511565b6000828152600a602052604090206105d98282612975565b60007fffffffff0000000000000000000000000000000000000000000000000000000082167f80ac58cd00000000000000000000000000000000000000000000000000000000148061172657507fffffffff0000000000000000000000000000000000000000000000000000000082167f5b5e139f00000000000000000000000000000000000000000000000000000000145b8061038157507f01ffc9a7000000000000000000000000000000000000000000000000000000007fffffffff00000000000000000000000000000000000000000000000000000000831614610381565b6000828152600e602052604090205460ff16156117ef576040517f08c379a000000000000000000000000000000000000000000000000000000000815260206004820152601c60248201527f4e46543a20546f6b656e20697320616c726561647920697373756564000000006044820152606401610511565b610af784848484611b6d565b73ffffffffffffffffffffffffffffffffffffffff841615610af757610af7848484611d11565b61182b81611dc4565b6000818152600a60205260409020805461184490612876565b159050610808576000818152600a6020526040812061080891612448565b600073ffffffffffffffffffffffffffffffffffffffff84163b15611a4a576040517f150b7a0200000000000000000000000000000000000000000000000000000000815273ffffffffffffffffffffffffffffffffffffffff85169063150b7a02906118d9903390899088908890600401612a8f565b6020604051808303816000875af1925050508015611932575060408051601f3d9081017fffffffffffffffffffffffffffffffffffffffffffffffffffffffffffffffe016820190925261192f91810190612ad8565b60015b6119ff573d808015611960576040519150601f19603f3d011682016040523d82523d6000602084013e611965565b606091505b5080516000036119f7576040517f08c379a000000000000000000000000000000000000000000000000000000000815260206004820152603260248201527f4552433732313a207472616e7366657220746f206e6f6e20455243373231526560448201527f63656976657220696d706c656d656e74657200000000000000000000000000006064820152608401610511565b805181602001fd5b7fffffffff00000000000000000000000000000000000000000000000000000000167f150b7a0200000000000000000000000000000000000000000000000000000000149050610e98565b506001949350505050565b6060600d805461039690612876565b6060611a6f82610ce2565b6000611a79611a55565b90506000815111611a995760405180602001604052806000815250610b41565b80611aa384611eb4565b604051602001611ab49291906128f8565b6040516020818303038152906040529392505050565b611ad48383611f72565b611ae16000848484611862565b6105d9576040517f08c379a000000000000000000000000000000000000000000000000000000000815260206004820152603260248201527f4552433732313a207472616e7366657220746f206e6f6e20455243373231526560448201527f63656976657220696d706c656d656e74657200000000000000000000000000006064820152608401610511565b6001811115611bfe576040517f08c379a000000000000000000000000000000000000000000000000000000000815260206004820152603560248201527f455243373231456e756d657261626c653a20636f6e736563757469766520747260448201527f616e7366657273206e6f7420737570706f7274656400000000000000000000006064820152608401610511565b8173ffffffffffffffffffffffffffffffffffffffff8516611c6757611c6281600880546000838152600960205260408120829055600182018355919091527ff3f7a9fe364faab93b216da50a3214154f22a0a2b415b23a84c8169e8b636ee30155565b611ca4565b8373ffffffffffffffffffffffffffffffffffffffff168573ffffffffffffffffffffffffffffffffffffffff1614611ca457611ca485826121af565b73ffffffffffffffffffffffffffffffffffffffff8416611ccd57611cc881612266565b611d0a565b8473ffffffffffffffffffffffffffffffffffffffff168473ffffffffffffffffffffffffffffffffffffffff1614611d0a57611d0a8482612315565b5050505050565b6000818152600e60205260409081902080547fffffffffffffffffffffffffffffffffffffffffffffffffffffffffffffff0016600117905551819073ffffffffffffffffffffffffffffffffffffffff80851691908616907f135ffb3383e06280e062ac5095bbf8faa98517161e596a2536bd98a9a8b64a8890611db7907f00000000000000000000000000000000000000000000000000000000000000009061260a565b60405180910390a4505050565b6000611dcf826108c9565b9050611ddf816000846001611776565b611de8826108c9565b600083815260046020908152604080832080547fffffffffffffffffffffffff000000000000000000000000000000000000000090811690915573ffffffffffffffffffffffffffffffffffffffff85168085526003845282852080547fffffffffffffffffffffffffffffffffffffffffffffffffffffffffffffffff0190558785526002909352818420805490911690555192935084927fddf252ad1be2c89b69c2b068fc378daa952ba7f163c4a11628f55a4df523b3ef908390a4610a518160008460016117fb565b60606000611ec183612366565b600101905060008167ffffffffffffffff811115611ee157611ee16126a2565b6040519080825280601f01601f191660200182016040528015611f0b576020820181803683370190505b5090508181016020015b7fffffffffffffffffffffffffffffffffffffffffffffffffffffffffffffffff017f3031323334353637383961626364656600000000000000000000000000000000600a86061a8153600a8504945084611f1557509392505050565b73ffffffffffffffffffffffffffffffffffffffff8216611fef576040517f08c379a000000000000000000000000000000000000000000000000000000000815260206004820181905260248201527f4552433732313a206d696e7420746f20746865207a65726f20616464726573736044820152606401610511565b60008181526002602052604090205473ffffffffffffffffffffffffffffffffffffffff161561207b576040517f08c379a000000000000000000000000000000000000000000000000000000000815260206004820152601c60248201527f4552433732313a20746f6b656e20616c7265616479206d696e746564000000006044820152606401610511565b612089600083836001611776565b60008181526002602052604090205473ffffffffffffffffffffffffffffffffffffffff1615612115576040517f08c379a000000000000000000000000000000000000000000000000000000000815260206004820152601c60248201527f4552433732313a20746f6b656e20616c7265616479206d696e746564000000006044820152606401610511565b73ffffffffffffffffffffffffffffffffffffffff8216600081815260036020908152604080832080546001019055848352600290915280822080547fffffffffffffffffffffffff0000000000000000000000000000000000000000168417905551839291907fddf252ad1be2c89b69c2b068fc378daa952ba7f163c4a11628f55a4df523b3ef908290a4610a516000838360016117fb565b600060016121bc84610955565b6121c69190612af5565b6000838152600760205260409020549091508082146122265773ffffffffffffffffffffffffffffffffffffffff841660009081526006602090815260408083208584528252808320548484528184208190558352600790915290208190555b50600091825260076020908152604080842084905573ffffffffffffffffffffffffffffffffffffffff9094168352600681528383209183525290812055565b60085460009061227890600190612af5565b600083815260096020526040812054600880549394509092849081106122a0576122a06128c9565b9060005260206000200154905080600883815481106122c1576122c16128c9565b60009182526020808320909101929092558281526009909152604080822084905585825281205560088054806122f9576122f9612b2f565b6001900381819060005260206000200160009055905550505050565b600061232083610955565b73ffffffffffffffffffffffffffffffffffffffff9093166000908152600660209081526040808320868452825280832085905593825260079052919091209190915550565b6000807a184f03e93ff9f4daa797ed6e38ed64bf6a1f01000000000000000083106123af577a184f03e93ff9f4daa797ed6e38ed64bf6a1f010000000000000000830492506040015b6d04ee2d6d415b85acef810000000083106123db576d04ee2d6d415b85acef8100000000830492506020015b662386f26fc1000083106123f957662386f26fc10000830492506010015b6305f5e1008310612411576305f5e100830492506008015b612710831061242557612710830492506004015b60648310612437576064830492506002015b600a83106103815760010192915050565b50805461245490612876565b6000825580601f10612464575050565b601f01602090049060005260206000209081019061080891905b80821115612492576000815560010161247e565b5090565b7fffffffff000000000000000000000000000000000000000000000000000000008116811461080857600080fd5b6000602082840312156124d657600080fd5b8135610b4181612496565b60005b838110156124fc5781810151838201526020016124e4565b50506000910152565b6000815180845261251d8160208601602086016124e1565b601f017fffffffffffffffffffffffffffffffffffffffffffffffffffffffffffffffe0169290920160200192915050565b602081526000610b416020830184612505565b60006020828403121561257457600080fd5b5035919050565b803573ffffffffffffffffffffffffffffffffffffffff8116811461259f57600080fd5b919050565b600080604083850312156125b757600080fd5b6125c08361257b565b946020939093013593505050565b6000806000606084860312156125e357600080fd5b6125ec8461257b565b92506125fa6020850161257b565b9150604084013590509250925092565b6020810160048310612645577f4e487b7100000000000000000000000000000000000000000000000000000000600052602160045260246000fd5b91905290565b60006020828403121561265d57600080fd5b610b418261257b565b6000806040838503121561267957600080fd5b6126828361257b565b91506020830135801515811461269757600080fd5b809150509250929050565b7f4e487b7100000000000000000000000000000000000000000000000000000000600052604160045260246000fd5b600067ffffffffffffffff808411156126ec576126ec6126a2565b604051601f85017fffffffffffffffffffffffffffffffffffffffffffffffffffffffffffffffe0908116603f01168101908282118183101715612732576127326126a2565b8160405280935085815286868601111561274b57600080fd5b858560208301376000602087830101525050509392505050565b6000806000806080858703121561277b57600080fd5b6127848561257b565b93506127926020860161257b565b925060408501359150606085013567ffffffffffffffff8111156127b557600080fd5b8501601f810187136127c657600080fd5b6127d5878235602084016126d1565b91505092959194509250565b600080604083850312156127f457600080fd5b6127fd8361257b565b9150602083013567ffffffffffffffff81111561281957600080fd5b8301601f8101851361282a57600080fd5b612839858235602084016126d1565b9150509250929050565b6000806040838503121561285657600080fd5b61285f8361257b565b915061286d6020840161257b565b90509250929050565b600181811c9082168061288a57607f821691505b6020821081036128c3577f4e487b7100000000000000000000000000000000000000000000000000000000600052602260045260246000fd5b50919050565b7f4e487b7100000000000000000000000000000000000000000000000000000000600052603260045260246000fd5b6000835161290a8184602088016124e1565b83519083019061291e8183602088016124e1565b01949350505050565b601f8211156105d957600081815260208120601f850160051c8101602086101561294e5750805b601f850160051c820191505b8181101561296d5782815560010161295a565b505050505050565b815167ffffffffffffffff81111561298f5761298f6126a2565b6129a38161299d8454612876565b84612927565b602080601f8311600181146129f657600084156129c05750858301515b7fffffffffffffffffffffffffffffffffffffffffffffffffffffffffffffffff600386901b1c1916600185901b17855561296d565b6000858152602081207fffffffffffffffffffffffffffffffffffffffffffffffffffffffffffffffe08616915b82811015612a4357888601518255948401946001909101908401612a24565b5085821015612a7f57878501517fffffffffffffffffffffffffffffffffffffffffffffffffffffffffffffffff600388901b60f8161c191681555b5050505050600190811b01905550565b600073ffffffffffffffffffffffffffffffffffffffff808716835280861660208401525083604083015260806060830152612ace6080830184612505565b9695505050505050565b600060208284031215612aea57600080fd5b8151610b4181612496565b81810381811115610381577f4e487b7100000000000000000000000000000000000000000000000000000000600052601160045260246000fd5b7f4e487b7100000000000000000000000000000000000000000000000000000000600052603160045260246000fdfea2646970667358221220c68d58399fdf0b0b9a6d1994dea6321333a961385a07032371032c354b0d6e8764736f6c63430008110033",
    "linkReferences": {}
  },
  "methodIdentifiers": {
    "approve(address,uint256)": "095ea7b3",
    "balanceOf(address)": "70a08231",
    "burn(uint256)": "42966c68",
    "burnAuth()": "2920b169",
    "getApproved(uint256)": "081812fc",
    "isApprovedForAll(address,address)": "e985e9c5",
    "name()": "06fdde03",
    "owner()": "8da5cb5b",
    "ownerOf(uint256)": "6352211e",
    "renounceOwnership()": "715018a6",
    "safeMint(address,string)": "d204c45e",
    "safeTransferFrom(address,address,uint256)": "42842e0e",
    "safeTransferFrom(address,address,uint256,bytes)": "b88d4fde",
    "setApprovalForAll(address,bool)": "a22cb465",
    "supportsInterface(bytes4)": "01ffc9a7",
    "symbol()": "95d89b41",
    "tokenByIndex(uint256)": "4f6ccce7",
    "tokenOfOwnerByIndex(address,uint256)": "2f745c59",
    "tokenURI(uint256)": "c87b56dd",
    "totalSupply()": "18160ddd",
    "transferFrom(address,address,uint256)": "23b872dd",
    "transferOwnership(address)": "f2fde38b"
  },
  "id": 47
}